:020000040800F2
:1000000038090020910200086128000859280008DA
:100010005D2800088904000819300008000000006D
:10002000000000000000000000000000212D00087A
:100030008D04000800000000FD2B0008252D00089D
:10004000AB020008AB020008AB020008AB020008DC
:10005000AB020008AB020008AB020008AB020008CC
:10006000AB020008AB020008AB020008AB020008BC
:10007000AB020008AB020008AB020008AB020008AC
:10008000AB020008AB020008AB020008AB0200089C
:10009000AB020008AB020008AB020008AB0200088C
:1000A000AB020008E12D0008AB020008AB0200081B
:1000B000AB020008AB020008AB020008AB0200086C
:1000C000AB020008AB020008AB020008AB0200085C
:1000D000AB020008AB020008AB020008AB0200084C
:1000E000AB020008AB020008AB020008AB0200083C
:1000F000AB020008AB020008AB020008AB0200082C
:10010000AB020008AB020008AB020008AB0200081B
:10011000AB020008AB020008AB020008AB0200080B
:10012000AB020008AB020008AB020008AB020008FB
:10013000AB0200080000000000000000AB02000855
:10014000AB020008AB020008AB020008AB020008DB
:10015000AB020008AB020008AB020008AB020008CB
:10016000AB020008AB020008AB020008AB020008BB
:10017000AB020008AB020008AB0200080000000060
:1001800000000000AB0200080000000000000000BA
:10019000AB0200080000000000000000AB020008F5
:1001A000000000000000000000000000AB0200089A
:1001B000AB020008AB020008AB020008AB0200086B
:1001C000AB02000800F002F800F052F814A696E81E
:1001D000000CB244B344DA4501D100F049F8BAE862
:1001E0000F000FA696E83000A5EB040504EB060708
:1001F000AAEB0704A7F101074FEA15154FEA3414DB
:10020000A4F10104AC4201D300F032F813F0010F65
:1002100018BFFB1A43F0010300F001F8DBE71847B1
:10022000403E0000603E0000103A24BF78C878C10C
:10023000FAD8520724BF30C830C144BF04680C60EC
:1002400070470000704700000023002400250026AE
:10025000103A28BF78C1FBD8520728BF30C148BF29
:100260000B6070471FB503F0DFFE1FBD10B510BD5A
:1002700000F0D0F81146FFF7F5FF02F031FF00F073
:10028000EEF803B4FFF7F2FF03BC00F0F5F800004E
:100290000948804709480047FEE7FEE7FEE7FEE71A
:1002A000FEE7FEE7FEE7FEE7FEE7FEE70448054956
:1002B000054A064B70470000CD2D0008C501000817
:1002C00038030020380900203805002038050020B8
:1002D00053EA020C00F069802DE9F04B4FF0000664
:1002E000002B1FBFB3FA83F503FA05F424FA05F6D1
:1002F0005E4012BF1643B2FA82F502FA05F4C5F168
:1003000020051EBF22FA05FC44EA0C04203556EAFB
:10031000044C4FEA144418BF641C4FF000084FF01F
:100320000009904271EB030C39D3002919BFB1FACF
:1003300081F701FA07F6B0FA80F700FA07F6C7F17D
:1003400020071EBF20FA07FC46EA0C062037B6FB42
:10035000F4FCA7EB0507103F07F01F0BCBF12006BD
:100360002CFA06F60CFA0BFB44BFB3460026202FEE
:10037000A4BF5E464FF0000B5BEA060C08BF4FF0CF
:10038000010B19EB0B0948EB0608ABFB027C06FBE3
:1003900002CC0BFB03CCC01B71EB0C01C1E70B467D
:1003A000024641464846BDE8F08B13B5084318BFE6
:1003B0004FF0FF300146AFF30080BDE81C407047AE
:1003C0004FF0000200B5134694469646203922BFEE
:1003D000A0E80C50A0E80C50B1F12001BFF4F7AF39
:1003E000090728BFA0E80C5048BF0CC05DF804EB1B
:1003F000890028BF40F8042B08BF704748BF20F889
:10040000022B11F0804F18BF00F8012B7047704786
:1004100070477047754600F02BF8AE4605006946F8
:10042000534620F00700854618B020B5FFF73EFF81
:10043000BDE820404FF000064FF000074FF00008E5
:100440004FF0000BAC46ACE8C009ACE8C009ACE822
:10045000C009ACE8C00921F007018D46704710B50E
:100460000446AFF300802046BDE81040FFF709BF07
:10047000004870471000002001491820ABBEFEE77D
:100480002600020070470000FEE7000070470000F1
:1004900070B581B00022009290F83C20012A03D16F
:1004A000022001B070BD00BFD1F800E00122BEF112
:1004B0000A0F1FFA8EFC80F83C2009D34FEA4C0249
:1004C000036812FA8EF2A2F11E0403F10C0204E09A
:1004D00003680EEB4E0403F1100207251668A540D1
:1004E00026EA050515608D68166805FA04F434439C
:1004F00014604968062907D801EB81014A1F194693
:1005000051F8345F0FE000BF0C2901EB810105D8E1
:10051000A1F12302194651F8305F04E0A1F1410234
:10052000194651F82C5F1F24944025EA04040C60FE
:100530000CFA02F20C6842F2043CC4F2010C2243B1
:10054000ACF54174A3420A6006D0002180F83C104B
:10055000002001B070BD00BF1221BEF1110FC1F229
:10056000000118BF8E453BD1DCF800208E4522F4F7
:100570008002CCF80020DCF8002042F40002CCF825
:100580000020E2D140F20801C2F2000109684DF6F4
:100590008362C4F21B32A1FB0212910C01EB8101B8
:1005A0004900009100990029CFD000BF009901397E
:1005B000009100990029C8D0009901390091009953
:1005C0000029C2D000990139009100990029BCD0BE
:1005D00000990139009100990029E7D1B5E700BFE2
:1005E000BEF1120FB1D1DCF8001021F40001CCF8FB
:1005F0000010DCF8001041F48001CCF80010A4E7F2
:100600000068C06C70470000002804BF01207047DC
:1006100010B5016C00293DD0016CC90645D4016CB0
:1006200041F202129143023142F204320164C4F2F7
:100630000102116821F440311160136890E8121032
:100640002343D0F810E013604A68012422F480723A
:100650004A604A68C0F6007442EA0E224A604A685C
:1006600022F040724A604A6842EA0C024A608A6894
:1006700022F400628A60C2688B681A438A60826AC8
:100680008B68A24223F070638B608B6810D123F0DB
:10069000405216E0044600F065F8204600216164EF
:1006A00084F83C10016CC906B9D5012153E000BFA4
:1006B0001A438A608A6822F040528A60C26A8B6854
:1006C0001A438A608A6822F002028A608A68037E7E
:1006D00090F8204042EA43028A604A6884B142F4BA
:1006E00000624A604A684EF2000322F460424A60A7
:1006F000426ACFF6FF734C6803EB4232224301E0BB
:1007000022F400624A60CA6A40F2000C22F47002CD
:10071000CA62C3694269CFF6F07CCC6A0CEB035322
:100720002343CB628B6823F400738B6090F83030E6
:100730008C6844EA43238B608B6823F480638B606E
:100740008B6843EA82228A6000214164026C0123A3
:1007500063F301020264002280F83C20BDE81040EF
:100760000846704780B586B042F200210068C4F2A6
:100770000101002288420592CDE9032202920192F2
:1007800002D006B080BD00BF43F630000092C4F234
:100790000200436943F480634361436903F4806367
:1007A0000093009B0092036843F004030360006819
:1007B00000F0040000900098042001900320CDE98F
:1007C000020201F5664001A900F044F906B080BDBF
:1007D00070B5044600680D468268520544BF8068C3
:1007E0005FEAC05038D400F011FA21680A68920715
:1007F00049D40646681C3CD0DDB90868800721D57D
:10080000086880073FD4086880071BD50868800700
:1008100039D40868800715D50868800733D408687C
:1008200080070FD508688007E7D52CE008688007A7
:1008300029D400F0EBF9801B2168A842F6D908689A
:100840008007F3D4206C40F004002064002084F87A
:100850003C00032070BD00BF206C40F020002064ED
:10086000002084F83C00012070BD00BF08688007AC
:1008700009D40868800706D4086880075CBF086848
:100880005FEA8070F2D56FF012000860206C40F4CF
:1008900000702064886810F0405F01D0002070BDB7
:1008A000207E0028FAD1C86A10F4700F02D0886840
:1008B0004005F3D4206C20F480702064206CC004C8
:1008C000ECD4206C40F001002064002070BD0000DA
:1008D00010B581B00021009190F83C10012903D19E
:1008E000022001B010BD00BF0468012180F83C1057
:1008F000214651F8083FDB0729D10B684DF683628A
:1009000043F001030B6040F20803C2F200031B68CE
:10091000C4F21B32A3FB02239A0C02EB42020092A8
:10092000009AA2B1009A013A0092009A7AB1009A14
:10093000013A0092009A52B1009A013A0092009A4C
:100940002AB1009A013A0092009A002AEAD10A6874
:10095000036CD2070CD143F01001016400F1440193
:1009600001200A6810430860002001B010BD00BFDC
:1009700040F2017223EA020202F5807202646268A8
:10098000520504D5026C012363F30D320264026C3C
:100990004FF0000E0023D20444BF426C22F0060345
:1009A00042F2043C436480F83CE06FF02200C4F261
:1009B000010C2060DCF80000C0060DD0ACF54170E1
:1009C00084422BD14FF60450CFF6FF705CF8000044
:1009D00010F0405F22D125E042F20000C4F2010095
:1009E000844217D042F20020C4F2010084420DD0AC
:1009F00042F20010C4F2010084420FD1DCF8000082
:100A0000C00607D0ACF58270844207D1DCF8000044
:100A1000C00603D4086810F0405F03D0002001B086
:100A200010BD00BF4FF080409BE70000B0B504460A
:100A300000F0ECF8054640F20000C2F20000007839
:100A4000611C18BF044400BF00F0E0F8401BA04246
:100A5000FAD3B0BD2DE9F04F83B000F1200200F1D0
:100A60003E4741F60005009207F1FF77C4F2020508
:100A700007224FEAB726A84208BF062200254FF0FA
:100A800000084FF00009062E38BF4FEAB722019246
:100A90000AE000BF09F1010908F10208B9F1100FDD
:100AA00005F1040500F0A2800F68012202FA09FE98
:100AB00017EA0E0AEED0D1F804C003220CF00307A7
:100AC0007E1E02FA08F4012E6FEA040B12D8846825
:100AD000CE6804EA0B0406FA08F6344384604468DE
:100AE00024EA0E06CCF3001404FA09F42643466007
:100AF00004E000BF032F01D103271EE0C6688C6805
:100B000006EA0B0604FA08F42643022FC66014D145
:100B10006FF00302009E02EA590756F807C005F07D
:100B20001C040F220B69A2402CEA0202A3401A43C4
:100B3000F251D1F804C00CF00307026807FA08F379
:100B400002EA0B021A431CF4403F0260A2D00022CA
:100B500043F644030292C4F202031A6843F60044C7
:100B600042F480421A601A68C4F2010402F480421E
:100B70000292029A29F003024FF6084C2244CFF663
:100B8000FF7C52F80C3005F00C070F26BE40B34333
:100B9000019E06FA07F73B4342F80C30A2684B6807
:100BA00042EA0A0743F60C4CDE0258BF22EA0A0763
:100BB000A760C4F2010CDCF800209E0242EA0A079A
:100BC00058BF22EA0A07CCF8007062689E0342EA26
:100BD0000A0758BF22EA0A0767602268DB0342EA75
:100BE0000A0758BF22EA0A07276053E703B0BDE8A7
:100BF000F08F00000069084018BF01207047000016
:100C0000002A08BF090481617047000040F23430B7
:100C1000C2F200000068704740F2000040F2343138
:100C2000C2F20000C2F2000100780A6810440860B5
:100C30007047000080B543F60040C4F2020001682E
:100C400041F400710160016841F480610160016854
:100C500041F480710160032000F086F8002000F06C
:100C600005F800F027F8002080BD000070B540F2C4
:100C70000006C2F2000640F208013278C2F200011A
:100C80004FF47A730968B3FBF2F20446B1FBF2F158
:100C9000084601F019F80F2C4FF0010508D838B9B3
:100CA0004FF0FF3021460022002500F031F874603B
:100CB000284670BD82B0002043F640010190C4F286
:100CC00002014A6842F480424A604A6802F4804263
:100CD0000192019A0090086840F08050086008680E
:100CE00000F080500090009802B07047002848BF84
:100CF000704700F01F01012202FA01F11C2202EAF2
:100D0000D0004EF20012CEF2000281507047000077
:100D100010B54EF60C5CCEF2000CDCF80030C3F3DC
:100D2000022E8EF00704042C28BF0424BEF1030316
:100D30004FF0FF3E0EFA04F438BF0023A143994060
:100D40000EFA03F39A43114300F00F0200F16043DF
:100D50000901043A03F564436244002848BF02F1E4
:100D60000C03197010BD00004EF60C51CEF20001BC
:100D70000A684FF6FF031A4060F30A2242F08060CF
:100D800040F0FD7008607047002804BF01207047E4
:100D90002DE9F04143F60808C4F202080446D8F8E9
:100DA000F8030D4600F00F00884207D288F8F85388
:100DB000D8F8F80300F00F00A84277D12068810727
:100DC00017D5410705D5D8F8001041F4E051C8F80F
:100DD0000010010705D5D8F8001041F46041C8F8AB
:100DE0000010D8F80010A26821F0F0011143C8F8F3
:100DF0000010C00740D1D8F8F80300F00F00A84257
:100E000007D988F8F853D8F8F80300F00F00A84283
:100E10004CD12068410707D5D8F80010E26821F4CA
:100E2000E0511143C8F80010000708D5D8F80000B9
:100E3000216920F4604040EAC100C8F8000000F0D9
:100E40007DF8D8F8001044F24202C1F30311C0F655
:100E50000002515C40F2080220FA01F140F2040065
:100E6000C2F200000068C2F200021160FFF7FEFE4D
:100E70000020BDE8F08100BF6068811E022907D212
:100E800058F8081C89015CBF0120BDE8F08111E021
:100E9000012807D158F8081C89035CBF0120BDE870
:100EA000F08107E058F8081C890703D40120BDE849
:100EB000F08100BFD8F8001021F003010843C8F802
:100EC0000000FFF7A3FE064641F28837D8F800007D
:100ED000616800F00C00B0EB810F8CD0FFF796FE3C
:100EE000801BB842F2D90320BDE8F08140F208002F
:100EF00043F60801C2F20000C4F20201006809686A
:100F000044F25202C1F38221C0F60002515CC84093
:100F10007047000040F2080043F60801C2F20000EA
:100F2000C4F202010068096844F25202C1F342317E
:100F3000C0F60002515CC8407047000010B543F68F
:100F40000404C4F202046068C0F3810142F200406C
:100F5000C0F2F400DFE801F04202081841F200207C
:100F6000C0F27A0010BD00BF216801F03F02216885
:100F700023684902C3F3881116D4A1FB00010023A2
:100F8000FFF7A6F917E000BF216801F03F022168D2
:100F900023684902C3F3881114D4A1FB0001002384
:100FA000FFF796F915E000BF41F20020C0F27A0089
:100FB0004843B0FBF2F021680222C1F3014102EB89
:100FC000410109E041F20020C0F27A004843B0FB41
:100FD000F2F02168C1F30271B0FBF1F010BD000026
:100FE000002804BF012070472DE9F04182B004467B
:100FF000007843F60006C007C4F202060CD0B068C1
:1010000000F00C00042840F089803068800303D58C
:101010006068002800F050812078800723D5B068F0
:1010200010F00C0F11D0B06800F00C00082802D1AD
:101030007068400209D5B06800F00C000C2840F040
:101040009F807068400200F19B803068800703D564
:10105000E068012840F030813068216920F0F80014
:1010600040EAC10030602078000713D420784007A0
:101070002AD4A569002D00F01A81B06800F00C0098
:10108000082840F0AB80012D40F0E880012002B03C
:10109000BDE8F0816069002840F20000C4F24720FA
:1010A00000F088800121C0F8801EFFF7AFFD0546E3
:1010B000706F8007DAD4FFF7A9FD401B0228F7D92B
:1010C000032002B0BDE8F081306C5FEAC0080AD4AA
:1010D00000200190306C40F080503064306C00F0A3
:1010E00080500190019847F20007C4F20007386869
:1010F000C00537D4386840F480703860FFF786FD4B
:10110000054600BF3868C0052CD4FFF77FFD401BA3
:101110000228F7D9032002B0BDE8F081B06800F0E2
:101120000C00082803D1706840023FF56EAFB0682C
:1011300000F00C000C2803D1706840023FF565AF49
:1011400061683068B1F5803F07D0B1F5A02F40F05D
:10115000CB8040F480203060306840F480303060D4
:10116000CBE000BFA168306F012905D0052957D118
:1011700040F004003067306F40F00100306759E004
:10118000E068002800F09C800020C4F24720012184
:101190000160FFF73BFD0546306880073FF55CAF17
:1011A000FFF734FD401B02284FF00300F4D902B0D2
:1011B000BDE8F0810021C0F8801EFFF727FD05463D
:1011C000706F80077FF552AFFFF720FD401B0228AC
:1011D000F6D9032002B0BDE8F08100BF0027C4F2B9
:1011E000472700203866FFF711FD022D05460BD179
:1011F0003068800140F19280FFF708FD401B022813
:101200004FF00300F4D9D2E7306880014FD5FFF7E3
:10121000FDFC401B02284FF00300F5D9C7E700BFD3
:1012200020F001003067306F002920F004003067A3
:1012300000F09880FFF7EAFC054641F2883700BFCE
:10124000306F800700F1A080FFF7E0FC401BB84240
:10125000F6D9032002B0BDE8F08100BF7068E169F3
:1012600000F480028A4227D1216A00F03F028A42BC
:1012700022D147F6C071626A0140B1EB821F1BD1D7
:10128000A16A4FF6FF73C903994300F44032A1F5F8
:1012900080318A4210D1E16A00F07062B2EB016FD6
:1012A0000AD1216B00F0E040B0EB017F04D10020B7
:1012B00002B0BDE8F08100BF012002B0BDE8F081BE
:1012C0000020C4F2472000210160FFF79FFC054683
:1012D000306880077FF5C7AEFFF798FC401B0228F7
:1012E0004FF00300F4D962E720F4803030603068BA
:1012F000002920F48020306050D0FFF787FC05469D
:10130000306880033FF588AEFFF780FC401B6428FF
:10131000F6D9032002B0BDE8F08100BF04F11C053E
:101320002FCD246B084340EA8210D9034FF6FF7299
:101330009143A1F5803140EA0560084340EA04701A
:10134000706001203866FFF761FC04463068800158
:10135000ADD4FFF75BFC001B02284FF00300F5D96A
:1013600025E700BFFFF752FC054641F2883700BF72
:10137000306F800708D5FFF749FC401BB8424FF09B
:101380000300F5D913E700BFB8F1000F3FF571AEC8
:10139000306C20F0805030646BE600BFFFF736FC05
:1013A000054600BF306880037FF536AEFFF72EFCA0
:1013B000401B64284FF00300F4D9F8E670B528B15B
:1013C000416A29B100210161142106E0012070BDAC
:1013D0004168B1F5827F02D01C21002242500026D4
:1013E000866290F8511029B980F85060054600F0E7
:1013F0003DF82846022180F8511090E82E0002F4B2
:1014000082720C6803F4044324F040040C601A4414
:1014100005F4006305691A4405F0020345691A449E
:1014200005F001038569C4691A4405F400731A4480
:1014300004F03803046A1A4404F08003846A1A43EF
:1014400004F400531A430A60436A042202EA154274
:1014500003F010031A444A60CA6922F40062CA61A8
:101460000121466580F85110304670BD2DE9F041EC
:1014700086B040F60004C4F202040068A4F5E63128
:1014800000268842CDE90466CDE90266019603D0C4
:1014900006B0BDE8F08100BF43F630000096C4F20C
:1014A0000200016901AD41F40041016101690227B7
:1014B00001F4004100910099009601684FF0030883
:1014C00041F0040101600068294600F0040000902A
:1014D0000098052005902046CDE901770396CDF8C8
:1014E0001080FFF7B7FA4FF44060CDE901070620FE
:1014F000059020462946CDE90368FFF7ABFA06B010
:10150000BDE8F0812DE9F04182B0044690F8510029
:10151000012819D160681D4617460E46B0F5827F36
:1015200001D1A068A0B1FFF771FB8046002E4FF0FB
:10153000010018BF002F03D102B0BDE8F08100BF49
:1015400094F85000012811D1022002B0BDE8F081CA
:10155000042084F851002046314632463B4600952F
:1015600000F00EFA02B0BDE8F08100BF012084F85F
:1015700050000420002184F851006165A663A7870C
:10158000E7872163A186E186A2682068B2F5004F53
:101590002164616438D00168490640D5E168E08F74
:1015A000002944D000287BD0681C0CD11BE000BF70
:1015B000C068A16B21F8020BA163E08F0138E087BE
:1015C000E08F00286CD020688168C907F0D1FFF750
:1015D0001DFBA0EB0800A842F2D342E0FFF716FB88
:1015E000E08F00285CD020688168C907F6D0C06809
:1015F000A16B21F8020BA163E08F0138E087E08F37
:101600000028F0D14CE000BF016821F040010160EA
:10161000016821F48041016001684906BED4016877
:1016200041F040010160E168E08F0029BAD1B8B310
:10163000681C0CD124E000BF007BA16B0870A06B7C
:101640000130A063E08F0138E087E08F40B320686D
:101650008168C907F0D1FFF7D9FAA0EB0800A842CA
:10166000F3D3012084F85100002084F850000320B7
:1016700002B0BDE8F08100BFFFF7C8FAE08F78B193
:1016800020688168C907F7D0007BA16B0870A06B48
:101690000130A063E08F0138E087E08F0028EFD1B0
:1016A0006068B0F5827F0ED1A068B0F5004F02D01F
:1016B000B0F5806F0AD12168B0F5806F0A6822F01A
:1016C00040020A6002D12046012101E0204680212B
:1016D00000222B46CDF8008001F092FA28B1606D0F
:1016E00040F02000606520206065012084F85100F2
:1016F000002084F85000606D002818BF012002B05F
:10170000BDE8F0812DE9F04184B01D4616460F4634
:101710000446FFF77BFA94F8511001290ED1804658
:10172000002F4FF0010018BF002E03D104B0BDE818
:10173000F08100BF94F85000012803D1022004B0CA
:10174000BDE8F081012084F850000320002184F8D6
:10175000510061652763A686E686A163A187E187BC
:10176000A0682164B0F5004F2068616407D101686A
:1017700021F040010160016841F48041016001688D
:10178000490603D4016841F0400101606168731E9D
:10179000E268B1FA81F1B3FA83F349095B09B2F562
:1017A000006F41EA030139D131B137F8021BC16042
:1017B0002763E08E0138E086E08E002870D0681C38
:1017C0000BD11AE0216B31F8022BC2602163E08E4D
:1017D0000138E086E08E002862D0206881688907A1
:1017E000F0D4FFF713FAA0EB0800A842F2D338E0D8
:1017F000FFF70CFAE08E002852D020688168890734
:10180000F6D5216B31F8022BC2602163E08E0138DE
:10181000E086E08E0028F0D142E000BF39B139788F
:101820000173206B01302063E08E0138E086E08E8A
:10183000B0B3681C0BD123E0216B09780173206BD6
:1018400001302063E08E0138E086E08E40B32068EE
:1018500081688907F0D4FFF7D9F9A0EB0800A84206
:10186000F3D3012084F85100002084F850000320B5
:1018700004B0BDE8F08100BFFFF7C8F9E08E78B191
:10188000206881688907F7D5216B09780173206B7F
:1018900001302063E08E0138E086E08E0028EFD131
:1018A0002046022101222B46CDF8008001F0A8F944
:1018B000E0B1606D40F02000606520206065A068A8
:1018C00038B9002002902068C168029180680290B7
:1018D0000298012084F85100002084F85000606DC7
:1018E000002818BF012004B0BDE8F08140F20800D4
:1018F000C2F20000006849F68171C1F25E61A0FB8E
:101900000101480D4FF47A71484303906068B0F5C7
:10191000827F0BD12046802100222B46CDF800800B
:1019200001F06EF90028C4D1C9E700BF0398002870
:10193000C5D0039801380390206880680006BED5A2
:1019400003980028BBD00398013803902068806872
:101950000006B4D503980028B1D00398013803904D
:10196000206880680006AAD503980028A7D00398AD
:1019700001380390206880680006D7D49FE70000F4
:101980002DE9F04383B01E4615460F460446FFF787
:101990003DF994F851108146012909D1002F4FF0EB
:1019A000010018BF002D0FD103B0BDE8F08300BFC8
:1019B0006068B0F5827F0DD104294FF00200F3D1A9
:1019C000A1680029EAD0EFE7002EEDD094F850008E
:1019D000012803D1022003B0BDE8F083012084F880
:1019E000500094F85100002104281CBF052084F801
:1019F00051006165A563E687A6872763E6862068B0
:101A0000A686216461640168490603D4016841F037
:101A1000400101606168731EE268B1FA81F1B3FAB6
:101A200083F3DDF8288049095B09B2F5006F41EACC
:101A3000030165D131B137F8021BC1602763E08E25
:101A40000138E086012518F1010032D102E000BF23
:101A5000FFF7DCF8E08E18B9E08F002800F0B880BE
:101A60002068816889070CD5E18E51B1012D08D11C
:101A7000216B002531F8022BC2602163E18E013910
:101A8000E1868168C907E3D0E18F0029E0D0C06812
:101A9000A16B012521F8020BA163E08F0138E087DB
:101AA000D6E700BFFFF7B2F8A0EB0900404580F091
:101AB000A580E08E18B9E08F002800F089802068AA
:101AC000816889070CD5E18E51B1012D08D1216BB8
:101AD000002531F8022BC2602163E18E0139E186D5
:101AE0008168C907DED0E18F0029DBD0C068A16B17
:101AF000012521F8020BA163E08F0138E087D1E7CF
:101B000039B139780173206B01302063E08E0138E0
:101B1000E086012518F1010032D101E0FFF776F8E7
:101B2000E08E10B9E08F002852D0206881688907C4
:101B30000ED5E18E61B1012D0AD1216B0025097806
:101B40000173216B206801312163E18E0139E18647
:101B50008168C907E2D0E18F0029DFD0C068A16B9E
:101B600001250870A06B0130A063E08F0138E08789
:101B7000D4E700BFFFF74AF8A0EB090040453DD28B
:101B8000E08E08B9E08F18B32068816889070ED508
:101B9000E18E61B1012D0AD1216B00250978017315
:101BA000216B206801312163E18E0139E186816872
:101BB000C907DFD0E18F0029DCD0C068A16B012507
:101BC0000870A06B0130A063E08F0138E087D1E797
:101BD0002046022101224346CDF8009001F010F882
:101BE000B0B1606D40F0200060652020606500208D
:101BF00084F85000012003B0BDE8F083012084F890
:101C00005100002084F85000032003B0BDE8F083A9
:101C100040F20800C2F20000006849F68171C1F28A
:101C20005E61A0FB0101480D4FF47A7148430290B8
:101C30006068B0F5827F0BD12046802100224346A8
:101C4000CDF8009000F0DCFF0028CAD124E000BFEE
:101C5000029808B302980138029020688068000654
:101C60001AD50298C0B102980138029020688068A5
:101C7000000611D5029878B10298013802902068C8
:101C80008068000608D5029830B1029801380290A9
:101C9000206880680006DBD4A06838B90020019075
:101CA0002068C1680191806801900198012084F842
:101CB0005100002084F85000606D002818BF0120FA
:101CC00003B0BDE8F0830000411E0020B0EB116FAF
:101CD0001CBF012070474EF21002CEF2000251608C
:101CE0004EF62351CEF20001F0230B7007219060D5
:101CF00011607047704700007047000090F83C206A
:101D0000012A4FF0020254D010B580F83D2002683D
:101D1000D2F804E0D2F808C00C682EF07003234318
:101D200041F2FF74C4F20004A24253600EDC40F2A0
:101D3000FF73C4F200039A4216DCB2F1804F2BD03D
:101D400040F20043C4F2000324E000BF40F2FF333E
:101D5000C4F201039A4213DC41F60003C4F200030B
:101D60009A4219D0002313E040F60003C4F20003A6
:101D70009A4211D040F60043C4F200030AE000BFCB
:101D800044F20003C4F201039A4205D040F200433A
:101D9000C4F201039A4204D149682CF0800319432C
:101DA00091600121002280F83D1080F83C20BDE8C0
:101DB0001040104670470000002804BF0120704703
:101DC00010B5044690F83D0028B9002084F83C0086
:101DD000204600F01FF8022084F83D002068211DF5
:101DE00001F004F8012084F8460084F83E0084F8ED
:101DF0003F0084F8400084F8410084F8420084F8F1
:101E0000430084F8440084F8450084F83D00002035
:101E100010BD000080B582B0006844F2FF31C4F20A
:101E20000101884216DCB0F1804F2DD040F2004114
:101E3000C4F20001884236D10020019043F64000F0
:101E4000C4F20200016841F002010160006800F084
:101E5000020026E044F20041C4F20101884225D08C
:101E600044F60001C4F2010188421CD10020019017
:101E700043F64000C4F20200416841F48021416011
:101E8000406800F480200CE00020019043F6400000
:101E9000C4F20200016841F001010160006800F035
:101EA00001000190019802B080BD00BF00200190A8
:101EB00043F64000C4F202004168002241F40031C0
:101EC00041604068002100F4003001900198192021
:101ED000FEF71EFF192002B0BDE88040FEF706BFE6
:101EE00090F83D1001291CBF01207047022180F8A5
:101EF0003D10006841F2FF71C4F2000188420DDC20
:101F000040F2FF71C4F20001884215DCB0F1804F4D
:101F10002AD040F20041C4F2000123E040F2FF3138
:101F2000C4F20101884213DC41F60001C4F2000151
:101F3000884219D0002113E040F60001C4F20001EC
:101F4000884211D040F60041C4F200010AE000BF0F
:101F500044F20001C4F20101884205D040F2004180
:101F6000C4F20101884206D1816801F00701062907
:101F700004BF00207047016841F0010101600020AA
:101F8000704700000146006841F21113026A1A42CC
:101F900004D00122002081F83D207047026A40F2FF
:101FA00044431A42F5D1026822F001020260012284
:101FB000002081F83D20704790F83C20012A4FF026
:101FC00002026CD080B580F83D20D0F800C04FF6FA
:101FD0007772DCF8083023EA0202CCF808200B689C
:101FE0004F2B29DC1F2B45DD202B46D0302B44D036
:101FF000402B40F0AF80D1F804E0C968DCF8203015
:10200000DCF8202022F00102CCF82020DCF8182097
:1020100022F0F00242EA011123F00A0242EA0E0223
:10202000CCF81810CCF82020DCF8081041F047015B
:1020300021F0300128E000BF6F2B33DDB3F5005FE6
:1020400074D0B3F5805F21D0702B40F08380D1E94C
:1020500001E3C968DCF8082043EA0E0322F47F425A
:1020600043EA01211143CCF80810DCF8081041F0D4
:10207000770109E00BB1102B6CD1DCF8081021F0CE
:102080007001194341F00701CCF80810002201212A
:1020900080F83D10002180F83C10BDE880401046DB
:1020A000704700BF502B21D0602B53D1D1F804E0F2
:1020B000C968DCF82030DCF8202022F01002CCF8CF
:1020C0002020DCF8182022F4704242EA013123F08B
:1020D000A00242EA0E12CCF81810CCF82020DCF84E
:1020E000081041F0670121F01001CDE7D1F804E0BC
:1020F000C968DCF82030DCF8202022F00102CCF89E
:102100002020DCF8182022F0F00242EA011123F02E
:102110000A0242EA0E02CCF81810CCF82020DCF8B3
:10212000081041F0570121F02001ADE7D1E901E3AA
:10213000C968DCF8082043EA0E0322F47F4243EA30
:1021400001211143CCF80810DCF8081041F480415B
:102150009AE700BF01229AE77047000070B5044675
:102160000068C5680669B10716D515F0020113D0DD
:102170006FF002010161012121778069800703D09E
:102180002046FFF7E9FF05E0204600F013F920465E
:1021900000F06AFA00202077700719D515F00400C6
:1021A00016D020686FF00401016102212177806957
:1021B00010F4407F04D02046FFF7CEFF06E000BFBA
:1021C000204600F0F7F8204600F04EFA0020207775
:1021D000300717D515F0080014D020686FF00801FB
:1021E000016104212177C069800703D02046FFF7F1
:1021F000B3FF05E0204600F0DDF8204600F034FA99
:1022000000202077F00619D515F0100016D02068B0
:102210006FF01001016108212177C06910F4407F3F
:1022200004D02046FFF798FF06E000BF204600F0EC
:10223000C1F8204600F018FA00202077F00718BFF8
:1022400015F0010002D1300609D412E020686FF0C9
:1022500001010161204600F091FA300609D515F020
:10226000800006D020686FF0800101612046FFF7F2
:1022700041FD700609D515F0400006D020686FF0CA
:1022800040010161204600F07BFAB00658BF70BDE6
:1022900015F0200008D021686FF0200220460A6166
:1022A000BDE87040FFF728BD70BD000080B586B066
:1022B000006844F2FF31C4F2010188424FF000018E
:1022C0000591CDE90311CDE901111BDCB0F1804F7F
:1022D00036D041F60001C4F20001884268D10020E6
:1022E000009043F63000C4F20200016841F00201A0
:1022F00001600068092100F00200009000984FF48E
:10230000404047E044F20041C4F2010188422FD02E
:1023100044F60001C4F20101884249D10020009036
:1023200043F63000C4F20200016841F0020101608E
:10233000006800F00200009000984FF4007028E060
:102340000020009043F63000C4F20200016841F022
:10235000010101600068012100F001000090009877
:1023600040F20040C4F202000191A0F5806016E046
:102370000020009043F63000C4F20200016841F0F2
:1023800002010160006800F00200009000984FF424
:1023900080700321019040F20040C4F2020002224A
:1023A00002920022059101A9CDE90322FEF752FB1A
:1023B00006B080BD7047000090F83C30012B04BF90
:1023C000022070474FEAB202032A00F2FF802DE993
:1023D000F043DFE802F003B13F7F00BF036840F243
:1023E00000461C6A1A6A24F0020422F001021A62F2
:1023F0001A46D3F804C052F818EF8F6843F480658A
:10240000C4F20106B54244EA070405D1CF6824F0BE
:102410000C0427F004073C430F68B54206D1D1E90C
:1024200005582CF440762E4346EA080C2EF073062D
:102430003743C3F804C09F614F6809695F631C623A
:102440009F6947F008079F619F6927F004079F6114
:10245000B1E000BF036840F200481C6A1A6A24F425
:10246000007422F480721A621A46D3F804C052F83B
:102470001CEF8F6843F48065C4F20108454544EAC7
:10248000072408D1CF6840F2FF463F0224F440649D
:1024900027EA06063443D1F80090454506D1D1E934
:1024A00005562CF440572E4347EA061C2EF07307BE
:1024B00047EA0907C3F804C0DF614F680969DF63B1
:1024C0001C62DF6947F00807DF61DF6927F0040756
:1024D000DF6170E0036840F20045D3F820C01A6A5B
:1024E00043F4806722F480521A621A465C6852F8FC
:1024F0001C8FD1F800E08E68C4F20105AF4204D110
:102500004D6924F4804444EA85142CF4005747EACA
:10251000063728F4E64646EA0E265C60DE614E6821
:1025200009691E641F62DF6947F40067DF61DF69C4
:1025300027F48067DF613DE0036840F200481C6AD1
:102540001A6A24F0200422F010021A621A46D3F804
:1025500004C052F818EF8F6843F48065C4F2010894
:10256000454544EA071407D1CF686FF0400624F0D0
:10257000C00406EA07163443D1F80090454506D159
:10258000D1E905562CF440672E4347EA860C2EF419
:10259000E64747EA0927C3F804C09F614F68096905
:1025A0009F631C629F6947F400679F619F6927F4DE
:1025B00080679F6109021368194311600021BDE81B
:1025C000F043002280F83C20084670470121002299
:1025D00080F83C2008467047002804BF012070475F
:1025E00010B5044690F83D0028B9002084F83C005E
:1025F000204600F01FF8022084F83D002068211DCD
:1026000000F0F4FB012084F8460084F83E0084F8D2
:102610003F0084F8400084F8410084F8420084F8C8
:10262000430084F8440084F8450084F83D0000200D
:1026300010BD0000006841F60001C4F200018842AC
:1026400018BF704781B00020009043F64000C4F2EC
:102650000200016841F040010160006800F04000A4
:102660000090009801B0704770470000C1B1042984
:1026700008D0082914BF41224022825C012A05D0DB
:1026800016E000BF3F22825C012A11D102220829F4
:1026900010D0042914BF80F8412080F83F200BE0BF
:1026A00090F83E20012A03D1022280F83E2003E068
:1026B0000120704780F84020006801F01F010122CE
:1026C000036A02FA01F123EA01020262026A11437B
:1026D00041F2FF72C4F20002904201620CDC40F24F
:1026E000FF71C4F20001884214DCB0F1804F37D092
:1026F00040F2004116E000BF40F2FF31C4F2010198
:10270000884215DC41F60001C4F20001884227D05E
:10271000002115E040F60001C4F2000188421FD0FC
:1027200040F60041C4F20001884219D01FE000BF0A
:1027300044F20001C4F20101884211D040F200418C
:10274000C4F20101884212D1416C40F2004340F4CE
:102750008062C4F2010341F400419A42416406D10F
:10276000816801F00701062904BF00207047016855
:1027700041F0010101600020704700007047000037
:1027800070470000002804BF0120704710B50446C0
:1027900090F8410028B9002084F84000204600F05D
:1027A00021F8242084F841002068C16821F40051F8
:1027B000C160204600F0BCFB2068016921F4904113
:1027C0000161416921F02A014161C16841F4005170
:1027D000C16000202021606484F8411084F8421018
:1027E000606310BD80B586B044F200410068C4F259
:1027F0000001002288420592CDE903220292019253
:1028000002D006B080BD00BF43F630000092C4F293
:102810000200036943F400330361036903F40033E6
:102820000093009B0092036843F00103036000687B
:1028300000F00100009000980C2001900220CDE9EA
:102840000202032004900720059001F5DE3001A963
:10285000FEF700F906B080BDFEE70000FEE70000CD
:10286000FEE70000B0B584B00024C4F202042046A4
:102870004FF400710022FEF7C3F9002000F0F0FED3
:102880002020ADF8020020464FF480710022FEF7B0
:10289000B7F940F22C15C2F200050DF102012846ED
:1028A00002224FF47A73FEF72DFF20464FF4807119
:1028B0000122FEF7A5F92120ADF8040020464FF4CF
:1028C00080710022FEF79CF901A9284602224FF4EC
:1028D0007A73FEF717FF20464FF480710122FEF74E
:1028E0008FF92220ADF8060020464FF480710022B7
:1028F000FEF786F90DF10601284602224FF47A739D
:10290000FEF700FF20464FF480710122FEF778F9B0
:1029100040F22330ADF8080020464FF480710022C9
:10292000FEF76EF902A9284602224FF47A73FEF7E9
:10293000E9FE20464FF480710122FEF761F9242060
:10294000ADF80A0020464FF480710022FEF758F9D6
:102950000DF10A01284602224FF47A73FEF7D2FEE7
:1029600020464FF480710122FEF74AF92520ADF888
:102970000C0020464FF480710022FEF741F903A9B4
:10298000284602224FF47A73FEF7BCFE20464FF42D
:1029900080710122FEF734F940F62660ADF80E0092
:1029A00020464FF480710022FEF72AF90DF10E0146
:1029B000284602224FF47A73FEF7A4FE20464FF415
:1029C00080710122FEF71CF920464FF400710122AC
:1029D000FEF716F904B0B0BD2DE9F04381B0002434
:1029E000C4F202040F46814620464FF400710022D3
:1029F0004FF00008FEF704F92720ADF8020020464A
:102A00004FF480710022FEF7FBF840F22C15C2F261
:102A100000050DF10201284602224FF47A730226C6
:102A2000FEF770FE20464FF480710122FEF7E8F8B1
:102A300025208DF8020020464FF4807100228DF889
:102A40000370FEF7DDF80DF10201284602224FF473
:102A50007A73FEF757FE20464FF480710122FEF78D
:102A6000CFF820464FF4807100228DF802608DF877
:102A70000180FEF7C5F80DF102012846012264230A
:102A8000FEF740FE0DF10101284601226423FEF706
:102A900039FD20464FF480710122FEF7B1F89DF810
:102AA0000100222140F004008DF802108DF803008F
:102AB00020464FF480710022FEF7A2F80DF10201CA
:102AC000284602224FF47A73FEF71CFE20464FF48C
:102AD00080710122FEF794F82B208DF80200204629
:102AE0004FF480710022FEF78BF80DF102012846A9
:102AF00001226423FEF706FE2846494605224FF4CC
:102B00007A73FEF7FFFD20464FF480710122FEF735
:102B100077F84EF62C60ADF8020020464FF4807135
:102B20000022FEF76DF80DF10201284602224FF453
:102B30007A73FEF7E7FD20464FF480710122FEF71D
:102B40005FF842F23300ADF8020020464FF4807186
:102B50000022FEF755F80DF10201284602224FF43B
:102B60007A73FEF7CFFD20464FF480710122FEF705
:102B700047F820464FF4807100228DF802808DF8CE
:102B80000180FEF73DF80DF1020128460122642381
:102B9000FEF7B8FD0DF10101284601226423FEF77E
:102BA000B1FC20464FF480710122FEF729F89DF810
:102BB0000100202140F003008DF802108DF8030081
:102BC00020464FF480710022FEF71AF80DF1020141
:102BD000284602224FF47A73FEF794FD20464FF404
:102BE00080710122FEF70CF820464FF4007101229B
:102BF000FEF706F801B0BDE8F08300007047000062
:102C00002DE9F04381B0089C984615460E46814652
:102C1000FDF7FCFF201A00EB0804FDF7F7FF40F278
:102C20000801C2F200010968C1F3CB316143009190
:102C3000D9F800108A683240921BB2FA82F2520927
:102C4000AA423DD0074618F1010031D0FDF7DEFF62
:102C5000C01BA04238D2009800990028A1F10101C0
:102C60000091D9F80010896808BF044601EA0600FF
:102C7000801BB0FA80F04009A842E7D120E000BFF5
:102C800088683040801BB0FA80F04009A84217D015
:102C900088683040801BB0FA80F04009A8420FD00D
:102CA00088683040801BB0FA80F04009A84207D005
:102CB00088683040801BB0FA80F04009A842DFD11C
:102CC000002001B0BDE8F083D9E900014268B1F508
:102CD000827F22F0E00242600BD1D9F80810B1F5F2
:102CE000004F02D0B1F5806F03D1016821F040019F
:102CF0000160D9F82810B1F5005F07D1016821F40F
:102D000000510160016841F400510160012089F81F
:102D10005100002089F85000032001B0BDE8F08385
:102D200070470000FDF778BF70B594B007AC20463F
:102D30003421FDF745FB002543F640000695CDE91B
:102D40000455CDE902550195C4F202000168012243
:102D500041F0805101600068022600F0805001902F
:102D6000019847F200000195C4F20000016862F387
:102D70008F310160006800F44040019001981020FC
:102D80000B900F904FF4A87010900420CDE911061D
:102D9000204607960A92CDE90D651396FEF720F9B5
:102DA00010B172B6FEE700BF0F20CDE902064FF466
:102DB0008050CDE9050502A802210495FDF7E4FF46
:102DC00010B172B6FEE700BF14B070BD4EF6885069
:102DD000CEF20000016841F470010160704700000C
:102DE00040F28410C2F20000FFF7B8B910B540F607
:102DF000FF3E0368C4F2000E40F2004C7045C4F27E
:102E0000010C25DCB0F1804F2FD040F20042C4F21B
:102E10000002904229D040F60002C4F20002904223
:102E200023D041F6FF72C4F20002904227DC7045C5
:102E30003ADCB0F1804F5BD040F20042C4F20002B5
:102E4000904255D040F60002C4F200024EE000BFAE
:102E500040F60042C4F20002904206D0604504D021
:102E60000022C4F201029042DBD14A6823F07003D1
:102E7000134341F6FF72C4F200029042D7DD43F6DD
:102E8000FF72C4F20102904220DC42F20002C4F25E
:102E9000000290422CD00022C4F20102904227D0BE
:102EA000604525D028E000BF40F60042C4F2000291
:102EB00090421DD041F60002C4F20002904217D0A9
:102EC00041F60042C4F2000210E000BF44F20002EA
:102ED000C4F2010290420BD044F60002C4F2010297
:102EE000904205D044F20042C4F20102904203D164
:102EF000CA6823F44073134323F080024B69D1F86E
:102F000000E08C681A430260C46240F48062C0F83A
:102F100028E0624504BF096901630121416101693B
:102F2000C90708BF10BD016921F00101016110BD91
:102F3000B0B50446006804F108030ECB05691943D7
:102F400025F440552A4302616269E3691143C2686E
:102F5000194349F20C639A431143C1604169A26964
:102F600021F4407141F20043114340F48062C4F205
:102F700001039A42416103D1FDF7CCFF02E000BF9B
:102F8000FDF7B4FFE1694FF69C7563681922C0F63E
:102F9000FF75B1F5004FA0FB02011FD15A00DB0FF6
:102FA000FDF796F948F21F51C5F2EB11A0FB012382
:102FB0005A0905F1805302FB0300322303EBC000E2
:102FC000A0FB01014FF4F87000EA111000EB0210B1
:102FD000C1F34211084421688860B0BD9A009B0F7C
:102FE000FDF776F948F21F51C5F2EB11A0FB012362
:102FF0005A0902FB0500322303EB0010A0FB01017C
:10300000F02000EA511000EB0210C1F34311084414
:1030100021688860B0BD0000FEE70000B42100F028
:1030200053BF0000B0B540F2B404C2F2000440F255
:103030008411C2F200012046002200F02BF840F279
:10304000CC1104F10C00C2F20001002200F022F8C1
:1030500040F21425C2F2000504F1180029460022AE
:1030600000F018F804F1240029460422BDE8B0401D
:1030700000F010B881600021026083808181704778
:1030800010B5044600F014F820460021BDE81040B9
:1030900000F01ABF03460120C3E9001218724FF076
:1030A000000C08461146A3F80AC0FFF7DFBA00007B
:1030B0000346C3E900124FF0000C08461146A3F87E
:1030C00008C0FFF7D3BA000000230246C0E900138E
:1030D000C0E90233C0E9043308469361FDF7F8BB49
:1030E0008EB040F60008C4F20208FDF7A3FDFFF71A
:1030F0001BFE002743F630000B97CDE90977CDE999
:1031000007770297C4F202000168002241F004012F
:1031100001600168082401F00401029102990297FC
:10312000016841F080010160016801F080010291B5
:1031300002990297016841F001010160016801F004
:103140000101029102990297016841F002010160B8
:103150000068082100F00200029002984046FDF746
:103160004FFDA8F500652846202100224FF02009D8
:10317000FDF746FD4FF4005007904FF4041007AEE2
:10318000CDE9080740463146FDF764FC0794012469
:1031900040463146CDE908470A97FDF75BFC2846D3
:1031A0003146CDE90794CDE90977FDF753FC0220BC
:1031B000A8F58065CDE90707284631460997FDF750
:1031C00049FC40F2E4000123A8F56641C2F2000088
:1031D000C0F600730A974FF40032047680F820702E
:1031E000C0E90A37C46180F8307080E88600C0E921
:1031F00003774461FDF708FA10B172B6FEE700BF2D
:103200000C2007A991C140F2E400C2F2000007A916
:10321000FDF73EF910B172B6FEE700BF40F25C2048
:103220000021C2F200004FF0804240F2473340F2EA
:10323000CF770591CDE90311CDE90011CDE90C114E
:10324000CDE90A11C0E90023C0E9021701618161DB
:10325000FEF7B2FD10B172B6FEE700BF4FF480502A
:10326000029040F25C20C2F2000002A9FEF7A4FE28
:1032700010B172B6FEE700BF40F25C20C2F200005F
:10328000FFF7AAF910B172B6FEE700BF40F25C206A
:10329000C2F200006946FEF731FD18B172B600BFF8
:1032A000FEE700BF6020079040F25C200024C2F2DD
:1032B000000007A90022CDE908440B94FFF77CF831
:1032C00010B172B6FEE700BF40F25C20C2F200000F
:1032D000FEF7ECFF40F2A420A8F50131C2F2000095
:1032E0004FF6FE730A94CDE90844CDE90244532217
:1032F00080E81600C0E903348461FEF75DFD18B173
:1033000072B600BFFEE700BF4FF48050079040F256
:10331000A420C2F2000007A9FEF74EFE10B172B65B
:10332000FEE700BF40F2A420C2F2000002A9FEF7AF
:10333000E5FC18B172B600BFFEE700BF40F2841092
:103340000021A8F54442C2F20000532340F2E737BF
:10335000CDE90C11CDE90A11C0E90023C0E902173B
:1033600001618161FEF728FD10B172B6FEE700BF72
:1033700040F28410C2F20000FFF72EF910B172B6CD
:10338000FEE700BF6020079040F284100024C2F2E4
:10339000000007A90022CDE908440B94FFF70CF8C0
:1033A00010B172B6FEE700BF40F28410C2F2000016
:1033B000FEF77CFF40F2CC10A8F54041C2F20000BD
:1033C00040F2E733CDE90C44CDE90A44532280E8CA
:1033D0001600C0E903348461FEF7EEFC10B172B64A
:1033E000FEE700BF40F2CC10C2F20000FFF7F4F895
:1033F00010B172B6FEE700BF6020079040F2CC101B
:103400000024C2F2000007A90022CDE908440B9471
:10341000FEF7D2FF10B172B6FEE700BF40F2CC104B
:10342000C2F20000FEF742FF40F21420A8F5F83186
:10343000C2F2000040F2E733CDE90C44CDE90A4482
:10344000532280E81600C0E903348461FFF7C4F812
:1034500010B172B6FEE700BF602007900020CDE9F2
:1034600008000B9040F21420C2F2000007A90022CD
:10347000FEF7A2FF10B172B6FEE700BF40F21420C3
:10348000C2F2000007A90422FEF796FF10B172B63F
:10349000FEE700BF40F21420C2F20000FEF706FF74
:1034A00040F2EC20A8F5E231C2F2000000240C2327
:1034B0004FF4E13280E81600C0E90344C0E9053466
:1034C000C461FFF75FF908B172B6FEE740F22C1055
:1034D000A8F5E631C2F200004FF40072C0E9001412
:1034E0000A21C0E90244C0E904448261C0E90844F9
:1034F000C0E90A41FDF762FF10B172B6FEE700BFF6
:10350000FFF7B0F944F25A00C0F600003421FFF78B
:1035100063FAFFF787FD40F27007C2F2000707F178
:103520000C0940F25C21C2F2000148460022FFF77C
:10353000A7FD07F1180A40F2A421C2F2000150468B
:103540002A460223FFF796FD07F1280540F2E40121
:10355000C2F200012846FFF7B7FD40F6B93813E084
:103560004846FFF75BFD284600F020FCB88D282870
:103570004FF0000038BF012000F0C8FC504600F0BA
:1035800007FB6420FDF752FAB8883E7A40BA7C7A8D
:10359000404503D300F042F816E000BFC0087C2885
:1035A00002D800F019F80FE0788840BA404503D3FC
:1035B00000F018FD08E000BFC0087C2802D800F029
:1035C000EFFC01E000F0CEFC002EC9D1002CCAD0E7
:1035D000484600F075FCC6E710B540F2B404C2F2EC
:1035E0000004204640F2E731002200F097FC04F18D
:1035F0000C0040F2E731002200F090FC04F11800CA
:1036000040F2E731002200F089FC04F1240040F28E
:10361000E7310022BDE8104000F080BC10B540F258
:10362000B404C2F20004204640F2E731012200F067
:1036300075FC04F10C0040F2E731012200F06EFC51
:1036400004F1180040F2E731012200F067FC04F1B8
:10365000240040F2E7310122BDE8104000F05EBCDA
:10366000F0B587B000241728C4F2020404D007285C
:1036700012D1272002E000BF41F23710ADF814004C
:1036800020464FF480710022FDF7BAFA40F22C1068
:10369000C2F2000005A96DE24FF40260ADF814001B
:1036A00020464FF480710022FDF7AAFA40F22C1553
:1036B000C2F2000505A9284602224FF47A73FEF7EC
:1036C00021F820464FF480710122FDF799FA43F664
:1036D0002170ADF8140020464FF480710022FDF7F0
:1036E0008FFA05A9284602224FF47A73FEF70AF8EA
:1036F00020464FF480710122FDF782FA40F2223019
:10370000ADF8140020464FF480710022FDF778FADE
:1037100005A9284602224FF47A73FDF7F3FF2046ED
:103720004FF480710122FDF76BFA40F22330ADF8BF
:10373000140020464FF480710022FDF761FA05A9BC
:10374000284602224FF47A73FDF7DCFF20464FF43F
:1037500080710122FDF754FA4FF44970ADF814005E
:1037600020464FF480710022FDF74AFA05A9284649
:1037700002224FF47A73FDF7C5FF20464FF48071A3
:103780000122FDF73DFA40F22520ADF81400204655
:103790004FF480710022FDF733FA05A92846022272
:1037A0004FF47A73FDF7AEFF20464FF4807101228B
:1037B000FDF726FA40F62660ADF8140020464FF4D7
:1037C00080710022FDF71CFA05A9284602224FF459
:1037D0007A73FDF797FF20464FF480710122FDF7C1
:1037E0000FFA2720ADF8140020464FF48071002214
:1037F000FDF706FA05A9284602224FF47A73FDF771
:1038000081FF20464FF480710122FDF7F9F928204D
:10381000ADF8140020464FF480710022FDF7F0F956
:1038200005A9284602224FF47A73FDF76BFF204664
:103830004FF480710122FDF7E3F92920ADF814005F
:1038400020464FF480710022FDF7DAF905A92846D9
:1038500002224FF47A73FDF755FF20464FF4807132
:103860000122FDF7CDF92A206FF018064FF0E73757
:103870008DF80C0020464FF4807100228DF81860FE
:103880000597FDF7BDF903A9284601226423FDF73A
:1038900039FF05A9284605224FF47A73FDF732FF58
:1038A00020464FF480710122FDF7AAF96FF03D0028
:1038B0008DF810004FF0C23003902B208DF80400DB
:1038C00020464FF480710022FDF79AF901A928469D
:1038D00001226423FDF716FF03A9284605224FF4B1
:1038E0007A73FDF70FFF20464FF480710122FDF738
:1038F00087F94CF22C30ADF8040020464FF480716B
:103900000022FDF77DF901A9284602224FF47A73BF
:10391000FDF7F8FE20464FF480710122FDF770F9A3
:103920004CF22D40ADF8040020464FF48071002287
:10393000FDF766F901A9284602224FF47A73FDF7D4
:10394000E1FE20464FF480710122FDF759F94CF257
:103950002E50ADF8040020464FF480710022FDF790
:103960004FF901A9284602224FF47A73FDF7CAFEE7
:1039700020464FF480710122FDF742F94CF22F608E
:10398000ADF8040020464FF480710022FDF738F9AD
:1039900001A9284602224FF47A73FDF7B3FE2046B0
:1039A0004FF480710122FDF72BF930208DF81A00B9
:1039B00020464FF4807100228DF808600197FDF7D2
:1039C0001FF90DF11A01284601226423FDF79AFE22
:1039D00001A9284605224FF47A73FDF793FE20468D
:1039E0004FF480710122FDF70BF93120ADF81A0078
:1039F00020464FF480710022FDF702F90DF11A0103
:103A0000284602224FF47A73FDF77CFE20464FF4DD
:103A100080710122FDF7F4F83220ADF81A0020463B
:103A20004FF480710022FDF7EBF80DF11A012846E2
:103A300002224FF47A73FDF765FE20464FF4807141
:103A40000122FDF7DDF83320ADF81A0020464FF4CF
:103A500080710022FDF7D4F80DF11A0128460222E8
:103A60004FF47A73FDF74EFE20464FF48071012229
:103A7000FDF7C6F83420ADF81A0020464FF48071E7
:103A80000022FDF7BDF80DF11A01284602224FF47D
:103A90007A73FDF737FE20464FF480710122FDF75F
:103AA000AFF83520ADF81A0020464FF4807100229F
:103AB000FDF7A6F80DF11A01284602224FF47A7399
:103AC000FDF720FE20464FF480710122FDF798F8A3
:103AD0003620ADF81A0020464FF480710022FDF721
:103AE0008FF80DF11A01284602224FF47A73FDF780
:103AF00009FE20464FF480710122FDF781F841F262
:103B00003710ADF81A0020464FF480710022FDF7FF
:103B100077F80DF11A01284602224FF47A73FDF767
:103B2000F1FD20464FF480710122FDF769F83C2039
:103B3000ADF81A0020464FF480710022FDF760F8BE
:103B40000DF11A01284602224FF47A73FDF7DAFDCF
:103B500020464FF480710122FDF752F83D20ADF868
:103B60001A0020464FF480710022FDF749F80DF14C
:103B70001A01284602224FF47A73FDF7C3FD20464E
:103B80004FF480710122FDF73BF807B0F0BD000053
:103B90002DE9F04190B001AD044628462821FCF7FC
:103BA0000FFC0020A1880F900D9003200B910E9028
:103BB000012120680C910BA9FCF74CFF2068A1881B
:103BC0000022FDF71DF8FDF721F80646FDF71EF867
:103BD000801B1228FAD372B6A068FEF781F9A0887C
:103BE00000260B9003200E9020680BA90F960D96CF
:103BF0000C96FCF72FFFA068006846622068A18839
:103C0000FCF7F8FFA16801280A6805D1506A80B264
:103C1000B0F5FA7FF2D91EE0002050622068A1883A
:103C2000FCF7E8FFA1680A68566A28B9B0B2B0F597
:103C3000FA7FF3D90FE000BF002050622068A1880E
:103C4000FCF7D8FFA16801280A68536A0CD198B222
:103C5000B0F5FA7FF2D900260846FEF793F962B66E
:103C6000304610B0BDE8F0816FF0550010FA86F0D4
:103C700010F10B0F4FF00006EED398B24B28EBD3A8
:103C80005528E9D84FF000080027C2F8248000BF6B
:103C90002068A188FCF7AEFFA1680A6830B9506AB5
:103CA00080B2B0F5FA7FF3D9D5E700BFC2F824801F
:103CB0002068A188FCF79EFFA16801280A68536A62
:103CC00098B203D1B0F5FA7FF2D9C5E73D38132891
:103CD0004FF0000038BF0120E8550137282FD4D11C
:103CE0009DF804009DF805209DF80630800040EA0C
:103CF00042009DF80770184380009DF8082040EAB4
:103D0000470010439DF8092080009DF80A3040EAE2
:103D1000420018439DF814309DF815709B009DF8E3
:103D2000166043EA470333439DF817709B009DF8E4
:103D3000186043EA470333439DF819709B009DF8D0
:103D40001A6043EA47039DF8247033439DF82560C9
:103D5000BF009DF8265047EA46072F439DF827608D
:103D6000BF009DF8285047EA46072F439DF8296079
:103D7000BF009DF80B2047EA46079DF82A609DF892
:103D80001B5037439DF82B6045EA430342EA40004D
:103D900007F07F071A1846EA4707D2B2974211BFC9
:103DA000002623736073012656E70000B0B5044671
:103DB00000680A21FCF70CFD2068FCF721FC054691
:103DC00020680A212581FCF703FD2068FCF718FC18
:103DD000608181B2206811FA85F50A21FCF7F8FCB0
:103DE0002068FCF70DFC2168A08115FA80F50846D3
:103DF0000A21FCF7EDFC2068FCF702FC2168E08159
:103E000015FA80F508460A21FCF7E2FC2068FCF769
:103E1000F7FB2168208215FA80F508460A21FCF795
:103E2000D7FC2068FCF7ECFB2168608215FA80F56E
:103E300008460A21FCF7CCFC2068FCF7E1FB21686E
:103E4000A08215FA80F508460A21FCF7C1FC20681B
:103E5000FCF7D6FB2168E08215FA80F508460A21B6
:103E6000FCF7B6FC2068FCF7CBFB2168208315FA31
:103E700080F508460A21FCF7ABFC2068FCF7C0FB84
:103E80004CF6CD4215FA80F1CCF6CC42A1FB0223D0
:103E9000DA0842F64033CFF6FE73642502FB053C98
:103EA0004EF6D503CBF21953608342F6E960ACFBC2
:103EB000033CE280814288BFA5EBDC25A580B0BD34
:103EC000002100F001B800008AB2B42A28BFB42251
:103ED0000029D0E9001348BF0022096802814BB1D4
:103EE000082B05D0042B14BF4020382003E000BF6E
:103EF0003C2000E03420C8235A4392B242F6835358
:103F00005A43322303EB52520A507047024640F69E
:103F10000000C4F202000821FCF772BE40F2E73351
:103F2000994238BF0B46002948BF0023002A18BF1A
:103F30000122D0E900C10272DCF80020438169B19E
:103F4000082907D0042914BF4020382099B2115005
:103F5000704700BF3C2099B211507047342099B28D
:103F60001150704710B540F2B404C2F2000420466C
:103F700000210122FFF7D2FF04F10C0000210122F1
:103F8000FFF7CCFF04F1180000210122FFF7C6FF64
:103F900004F1240000210122BDE81040FFF7BEBF5C
:103FA00010B540F2B404C2F20004204640F2E731FA
:103FB0000022FFF7B3FF04F10C0040F2E7310122C9
:103FC000FFF7ACFF04F1180040F2E7310022FFF7E1
:103FD000A5FF04F1240040F2E7310122BDE81040C2
:103FE000FFF79CBF10B540F2B404C2F200042046B3
:103FF00040F2E7310122FFF791FF04F10C0040F29B
:10400000E7310022FFF78AFF04F1180040F2E731A0
:104010000122FFF783FF04F1240040F2E731002280
:10402000BDE81040FFF77ABFF1EE100A4FF6FF71BE
:10403000C0F2C03120EA010040F04070E1EE100A09
:1040400070470000000000000000010203040607A2
:1040500008090000000001020304527841414100B8
:104060008040000800000020100000002802000826
:1040700090400008100000202809000048020008B5
:1040800001000000100000000024F4000000000007
:04000005080001C529
:00000001FF
