:020000040800F2
:10000000A008002091020008BD0C0008B50C0008F3
:10001000B90C000899030008ED0C0008000000006E
:10002000000000000000000000000000C50C0008F7
:100030009D03000800000000C10C0008C90C000866
:10004000AB020008AB020008AB020008AB020008DC
:10005000AB020008AB020008AB020008AB020008CC
:10006000AB020008AB020008AB020008AB020008BC
:10007000AB020008AB020008AB020008AB020008AC
:10008000AB020008AB020008AB020008AB0200089C
:10009000AB020008AB020008AB020008AB0200088C
:1000A000AB020008E10C0008AB020008AB0200083C
:1000B000AB020008AB020008AB020008AB0200086C
:1000C000AB020008AB020008AB020008AB0200085C
:1000D000AB020008AB020008AB020008AB0200084C
:1000E000AB020008AB020008AB020008AB0200083C
:1000F000AB020008AB020008AB020008AB0200082C
:10010000AB020008AB020008AB020008AB0200081B
:10011000AB020008AB020008AB020008AB0200080B
:10012000AB020008AB020008AB020008AB020008FB
:10013000AB0200080000000000000000AB02000855
:10014000AB020008AB020008AB020008AB020008DB
:10015000AB020008AB020008AB020008AB020008CB
:10016000AB020008AB020008AB020008AB020008BB
:10017000AB020008AB020008AB0200080000000060
:1001800000000000AB0200080000000000000000BA
:10019000AB0200080000000000000000AB020008F5
:1001A000000000000000000000000000AB0200089A
:1001B000AB020008AB020008AB020008AB0200086B
:1001C000AB02000800F002F800F052F814A696E81E
:1001D000000CB244B344DA4501D100F049F8BAE862
:1001E0000F000FA696E83000A5EB040504EB060708
:1001F000AAEB0704A7F101074FEA15154FEA3414DB
:10020000A4F10104AC4201D300F032F813F0010F65
:1002100018BFFB1A43F0010300F001F8DBE71847B1
:10022000B8110000D8110000103A24BF78C878C176
:10023000FAD8520724BF30C830C144BF04680C60EC
:1002400070470000704700000023002400250026AE
:10025000103A28BF78C1FBD8520728BF30C148BF29
:100260000B6070471FB501F0A9F81FBD10B510BD98
:1002700000F058F81146FFF7F5FF00F09BFD00F085
:1002800076F803B4FFF7F2FF03BC00F07DF800003E
:100290000948804709480047FEE7FEE7FEE7FEE71A
:1002A000FEE7FEE7FEE7FEE7FEE7FEE70448054956
:1002B000054A064B70470000CD0C0008C501000838
:1002C000A0020020A0080020A0040020A00400201C
:1002D0004FF0000200B5134694469646203922BFDF
:1002E000A0E80C50A0E80C50B1F12001BFF4F7AF2A
:1002F000090728BFA0E80C5048BF0CC05DF804EB0C
:10030000890028BF40F8042B08BF704748BF20F879
:10031000022B11F0804F18BF00F8012B7047704777
:1003200070477047754600F02BF8AE4605006946E9
:10033000534620F00700854618B020B5FFF7B6FFFA
:10034000BDE820404FF000064FF000074FF00008D6
:100350004FF0000BAC46ACE8C009ACE8C009ACE813
:10036000C009ACE8C00921F007018D46704710B5FF
:100370000446AFF300802046BDE81040FFF781BF80
:10038000004870471000002001491820ABBEFEE76E
:100390002600020070470000FEE7000070470000E2
:1003A0000068C06C7047000070B5044600680D46D8
:1003B0008268520544BF80685FEAC05038D400F0BC
:1003C00011FA21680A68920749D40646681C3CD095
:1003D000DDB90868800721D5086880073FD4086820
:1003E00080071BD50868800739D40868800715D5B1
:1003F0000868800733D4086880070FD5086880072D
:10040000E7D52CE00868800729D400F0EBF9801BC1
:100410002168A842F6D908688007F3D4206C40F020
:1004200004002064002084F83C00032070BD00BF5D
:10043000206C40F020002064002084F83C00012063
:1004400070BD00BF0868800709D40868800706D41B
:10045000086880075CBF08685FEA8070F2D56FF0BB
:1004600012000860206C40F400702064886810F06E
:10047000405F01D0002070BD207E0028FAD1C86AFC
:1004800010F4700F02D088684005F3D4206C20F47B
:1004900080702064206CC004ECD4206C40F001001B
:1004A0002064002070BD000010B581B000210091D3
:1004B00090F83C10012903D1022001B010BD00BF0B
:1004C0000468012180F83C10214651F8083FDB0701
:1004D00029D10B684DF6836243F001030B6040F2B3
:1004E0000803C2F200031B68C4F21B32A3FB022301
:1004F0009A0C02EB42020092009AA2B1009A013AD1
:100500000092009A7AB1009A013A0092009A52B190
:10051000009A013A0092009A2AB1009A013A009298
:10052000009A002AEAD10A68036CD2070CD143F082
:100530001001016400F1440101200A6810430860C1
:10054000002001B010BD00BF40F2017223EA020298
:1005500002F5807202646268520504D5026C0123C0
:1005600063F30D320264026C4FF0000E0023D204DC
:1005700044BF426C22F0060342F2043C436480F81C
:100580003CE06FF02200C4F2010C2060DCF80000B7
:10059000C0060DD0ACF5417084422BD14FF604500B
:1005A000CFF6FF705CF8000010F0405F22D125E02C
:1005B00042F20000C4F20100844217D042F200204F
:1005C000C4F2010084420DD042F20010C4F20100D6
:1005D00084420FD1DCF80000C00607D0ACF5827071
:1005E000844207D1DCF80000C00603D4086810F08C
:1005F000405F03D0002001B010BD00BF4FF080402D
:100600009BE70000B0B5044600F0ECF8054640F268
:100610000000C2F200000078611C18BF044400BF53
:1006200000F0E0F8401BA042FAD3B0BD2DE9F04F36
:1006300083B000F1200200F13E4741F60005009230
:1006400007F1FF77C4F2020507224FEAB726A84256
:1006500008BF062200254FF000084FF00009062EC3
:1006600038BF4FEAB72201920AE000BF09F1010941
:1006700008F10208B9F1100F05F1040500F0A2809D
:100680000F68012202FA09FE17EA0E0AEED0D1F82D
:1006900004C003220CF003077E1E02FA08F4012EA8
:1006A0006FEA040B12D88468CE6804EA0B0406FAD9
:1006B00008F634438460446824EA0E06CCF3001440
:1006C00004FA09F42643466004E000BF032F01D179
:1006D00003271EE0C6688C6806EA0B0604FA08F4D5
:1006E0002643022FC66014D16FF00302009E02EA77
:1006F000590756F807C005F01C040F220B69A240E9
:100700002CEA0202A3401A43F251D1F804C00CF0C3
:100710000307026807FA08F302EA0B021A431CF403
:10072000403F0260A2D0002243F644030292C4F28A
:1007300002031A6843F6004442F480421A601A68C1
:10074000C4F2010402F480420292029A29F00302E8
:100750004FF6084C2244CFF6FF7C52F80C3005F0DF
:100760000C070F26BE40B343019E06FA07F73B4332
:1007700042F80C30A2684B6842EA0A0743F60C4C78
:10078000DE0258BF22EA0A07A760C4F2010CDCF8B7
:1007900000209E0242EA0A0758BF22EA0A07CCF864
:1007A000007062689E0342EA0A0758BF22EA0A07FD
:1007B00067602268DB0342EA0A0758BF22EA0A0799
:1007C000276053E703B0BDE8F08F000000690840E0
:1007D00018BF012070470000002A08BF090481618A
:1007E000704700007047000040F2000040F29C217A
:1007F000C2F20000C2F2000100780A6810440860EA
:100800007047000080B543F60040C4F20200016862
:1008100041F400710160016841F480610160016888
:1008200041F480710160032000F074F8002000F0B2
:1008300005F800F027F8002080BD000070B540F2F8
:100840000006C2F2000640F208013278C2F200014E
:100850004FF47A730968B3FBF2F20446B1FBF2F18C
:10086000084600F067F80F2C4FF0010508D838B99A
:100870004FF0FF3021460022002500F01FF8746081
:10088000284670BD82B0002043F640010190C4F2BA
:1008900002014A6842F480424A604A6802F4804297
:1008A0000192019A0090086840F080500860086842
:1008B00000F080500090009802B0704710B54EF6DE
:1008C0000C5CCEF2000CDCF80030C3F3022E8EF08C
:1008D0000704042C28BF0424BEF103034FF0FF3E9D
:1008E0000EFA04F438BF0023A14399400EFA03F333
:1008F0009A43114300F00F0200F160430901043AEA
:1009000003F564436244002848BF02F10C031970E8
:1009100010BD00004EF60C51CEF200010A684FF6F1
:10092000FF031A4060F30A2242F0806040F0FD703D
:1009300008607047411E0020B0EB116F1CBF012002
:1009400070474EF21002CEF2000251604EF6235173
:10095000CEF20001F0230B70072190601160704708
:10096000704700007047000090F83D1001291CBF3F
:1009700001207047022180F83D10006841F2FF71AC
:10098000C4F2000188420DDC40F2FF71C4F20001A4
:10099000884215DCB0F1804F2AD040F20041C4F209
:1009A000000123E040F2FF31C4F20101884213DC70
:1009B00041F60001C4F20001884219D0002113E081
:1009C00040F60001C4F20001884211D040F6004117
:1009D000C4F200010AE000BF44F20001C4F20101C8
:1009E000884205D040F20041C4F20101884206D19C
:1009F000816801F00701062904BF002070470168E3
:100A000041F00101016000207047000001460068CC
:100A100041F21113026A1A4204D00122002081F827
:100A20003D207047026A40F244431A42F5D1026801
:100A300022F0010202600122002081F83D2070476F
:100A40007047000070B504460068C5680669B107C4
:100A500016D515F0020113D06FF0020101610121DA
:100A600021778069800703D02046FFF7E9FF05E082
:100A7000204600F08FF8204600F08EF80020207706
:100A8000700719D515F0040016D020686FF0040126
:100A9000016102212177806910F4407F04D0204653
:100AA000FFF7CEFF06E000BF204600F073F82046B7
:100AB00000F072F800202077300717D515F00800F5
:100AC00014D020686FF00801016104212177C0690A
:100AD000800703D02046FFF7B3FF05E0204600F073
:100AE00059F8204600F058F800202077F00619D574
:100AF00015F0100016D020686FF010010161082178
:100B00002177C06910F4407F04D02046FFF798FF9A
:100B100006E000BF204600F03DF8204600F03CF81B
:100B200000202077F00718BF15F0010002D1300631
:100B300009D412E020686FF001010161204600F045
:100B4000B5F8300609D515F0800006D020686FF0A2
:100B5000800101612046FFF703FF700609D515F0FB
:100B6000400006D020686FF040010161204600F08F
:100B70009FF8B00658BF70BD15F0200008D021685E
:100B80006FF0200220460A61BDE87040FFF7EABE20
:100B900070BD00007047000070470000C1B104291B
:100BA00008D0082914BF41224022825C012A05D0C6
:100BB00016E000BF3F22825C012A11D102220829DF
:100BC00010D0042914BF80F8412080F83F200BE0AA
:100BD00090F83E20012A03D1022280F83E2003E053
:100BE0000120704780F84020006801F01F010122B9
:100BF000036A02FA01F123EA01020262026A114366
:100C000041F2FF72C4F20002904201620CDC40F239
:100C1000FF71C4F20001884214DCB0F1804F37D07C
:100C200040F2004116E000BF40F2FF31C4F2010182
:100C3000884215DC41F60001C4F20001884227D049
:100C4000002115E040F60001C4F2000188421FD0E7
:100C500040F60041C4F20001884219D01FE000BFF5
:100C600044F20001C4F20101884211D040F2004177
:100C7000C4F20101884212D1416C40F2004340F4B9
:100C80008062C4F2010341F400419A42416406D1FA
:100C9000816801F00701062904BF00207047016840
:100CA00041F0010101600020704700007047000022
:100CB00070470000FEE70000FEE70000FEE70000CE
:100CC0007047000070470000FFF78EBD4EF6885059
:100CD000CEF20000016841F470010160704700002D
:100CE00040F23410C2F20000FFF7ACBEFEE7000095
:100CF000B42100F0B3BA0000B0B540F2BC04C2F2B7
:100D0000000440F23411C2F200012046002200F03B
:100D10002BF840F27C1104F10C00C2F20001002219
:100D200000F022F840F2C415C2F2000504F11800E8
:100D30002946002200F018F804F124002946042274
:100D4000BDE8B04000F010B88160002102608380EF
:100D50008181704710B5044600F014F82046002148
:100D6000BDE8104000F07ABA03460120C3E9001242
:100D700018724FF0000C08461146A3F80AC0FFF79E
:100D80000DBF00000346C3E900124FF0000C0846F7
:100D90001146A3F808C0FFF701BF00000023024678
:100DA000C0E90013C0E90233C0E904330846936187
:100DB000FFF77ABBFFF7A0FF40F27004C2F2000415
:100DC00004F1140840F20C21C2F200014046002256
:100DD000FFF7C0FF04F1200A40F2542140F2004224
:100DE000C2F20001C4F2020250460223FFF7ACFF38
:100DF00004F1300640F2EC01C2F200013046FFF788
:100E0000CDFFFFF7FFFC40F6B93917E04046FFF78A
:100E10006FFF304600F094F9A08E0027282838BFD5
:100E20000127384600F03CFA6068276001306060B6
:100E3000504600F077F86420FFF7E4FBA089257C9A
:100E400040BA677C484505D300F04AF8002DDDD153
:100E50001EE000BFC0087C2804D800F01FF8002D59
:100E6000D4D115E0608940BA484505D300F084FA32
:100E7000002DCBD10CE000BFC0087C2804D800F0C6
:100E800059FA002DC2D103E000F036FA002DBDD191
:100E9000002FBED0404600F0DDF9BAE710B540F2B1
:100EA000BC04C2F20004204640F2E731002200F008
:100EB000FFF904F10C0040F2E731002200F0F8F9EC
:100EC00004F1180040F2E731002200F0F1F904F1DA
:100ED000240040F2E7310022BDE8104000F0E8B9FC
:100EE00010B540F2BC04C2F20004204640F2E731E3
:100EF000012200F0DDF904F10C0040F2E73101229B
:100F000000F0D6F904F1180040F2E731012200F0B8
:100F1000CFF904F1240040F2E7310122BDE810408E
:100F200000F0C6B92DE9F04190B001AD0446284665
:100F30002821FFF7CDF90020A1880F900D90032004
:100F40000B910E90012120680C910BA9FFF76EFB0D
:100F50002068A1880022FFF73FFCFFF743FC06460C
:100F6000FFF740FC801B1228FAD372B6A068FFF787
:100F7000FBFCA08800260B9003200E9020680BA994
:100F80000F960D960C96FFF751FBA068006846621D
:100F90002068A188FFF71AFCA16801280A6805D11A
:100FA000506A80B2B0F5FA7FF2D91EE0002050629C
:100FB0002068A188FFF70AFCA1680A68566A28B968
:100FC000B0B2B0F5FA7FF3D90FE000BF0020506255
:100FD0002068A188FFF7FAFBA16801280A68536A14
:100FE0000CD198B2B0F5FA7FF2D900260846FFF787
:100FF0000DFD62B6304610B0BDE8F0816FF05500CF
:1010000010FA86F010F10B0F4FF00006EED398B2F5
:101010004B28EBD35528E9D84FF000080027C2F839
:10102000248000BF2068A188FFF7D0FBA1680A6870
:1010300030B9506A80B2B0F5FA7FF3D9D5E700BF76
:10104000C2F824802068A188FFF7C0FBA1680128AE
:101050000A68536A98B203D1B0F5FA7FF2D9C5E7AE
:101060003D3813284FF0000038BF0120E855013704
:10107000282FD4D19DF804009DF805209DF8063056
:10108000800040EA42009DF80770184380009DF8F8
:10109000082040EA470010439DF8092080009DF891
:1010A0000A3040EA420018439DF814309DF815704C
:1010B0009B009DF8166043EA470333439DF8177081
:1010C0009B009DF8186043EA470333439DF819706D
:1010D0009B009DF81A6043EA47039DF82470334350
:1010E0009DF82560BF009DF8265047EA46072F432C
:1010F0009DF82760BF009DF8285047EA46072F4318
:101100009DF82960BF009DF80B2047EA46079DF82F
:101110002A609DF81B5037439DF82B6045EA430336
:1011200042EA400007F07F071A1846EA4707D2B2A2
:10113000974211BF002623736073012656E7000013
:10114000B0B5044600680A21FFF72EF92068FFF7C2
:1011500027F9054620680A212581FFF725F920682F
:10116000FFF71EF9608181B2206811FA85F50A2126
:10117000FFF71AF92068FFF713F92168A08115FA23
:1011800080F508460A21FFF70FF92068FFF708F9F4
:101190002168E08115FA80F508460A21FFF704F975
:1011A0002068FFF7FDF82168208215FA80F50846CF
:1011B0000A21FFF7F9F82068FFF7F2F8216860824A
:1011C00015FA80F508460A21FFF7EEF82068FFF7C8
:1011D000E7F82168A08215FA80F508460A21FFF792
:1011E000E3F82068FFF7DCF82168E08215FA80F563
:1011F00008460A21FFF7D8F82068FFF7D1F82168E0
:10120000208315FA80F508460A21FFF7CDF82068FB
:10121000FFF7C6F84CF6CD4215FA80F1CCF6CC4279
:10122000A1FB0223DA0842F64033CFF6FE736425B1
:1012300002FB053C4EF6D503CBF21953608342F610
:10124000E960ACFB033CE280814288BFA5EBDC2572
:10125000A580B0BD002100F001B800008AB2B42A18
:1012600028BFB4220029D0E9001348BF0022096832
:1012700002814BB1082B05D0042B14BF402038202D
:1012800003E000BF3C2000E03420C8235A4392B260
:1012900042F683535A43322303EB52520A507047AB
:1012A000024640F60000C4F202000821FFF794BA9B
:1012B00040F2E733994238BF0B46002948BF00236C
:1012C000002A18BF0122D0E900C10272DCF8002018
:1012D000438169B1082907D0042914BF4020382070
:1012E00099B21150704700BF3C2099B2115070471D
:1012F000342099B21150704710B540F2BC04C2F2CC
:101300000004204600210122FFF7D2FF04F10C0067
:1013100000210122FFF7CCFF04F118000021012277
:10132000FFF7C6FF04F1240000210122BDE81040B0
:10133000FFF7BEBF10B540F2BC04C2F20004204665
:1013400040F2E7310022FFF7B3FF04F10C0040F256
:10135000E7310122FFF7ACFF04F1180040F2E7315A
:101360000022FFF7A5FF04F1240040F2E73101223B
:10137000BDE81040FFF79CBF10B540F2BC04C2F2BC
:101380000004204640F2E7310122FFF791FF04F10B
:101390000C0040F2E7310022FFF78AFF04F1180049
:1013A00040F2E7310122FFF783FF04F1240040F20D
:1013B000E7310022BDE81040FFF77ABFF1EE100AD6
:1013C0004FF6FF71C0F2C03120EA010040F04070DA
:1013D000E1EE100A70470000F8130008000000203A
:1013E0001000000028020008081400081000002067
:1013F00090080000480200080100000010000000F2
:081400000024F40000000000CC
:04000005080001C529
:00000001FF
