:020000040800F2
:100000007008002091020008D51A0008CD1A0008D7
:10001000D11A000889040008D51D0008000000005E
:10002000000000000000000000000000DD1A0008D1
:100030008D04000800000000D91A0008E11A000829
:10004000AB020008AB020008AB020008AB020008DC
:10005000AB020008AB020008AB020008AB020008CC
:10006000AB020008AB020008AB020008AB020008BC
:10007000AB020008AB020008AB020008AB020008AC
:10008000AB020008AB020008AB020008AB0200089C
:10009000AB020008AB020008AB020008AB0200088C
:1000A000AB0200089D1B0008AB020008AB02000871
:1000B000AB020008AB020008AB020008AB0200086C
:1000C000AB020008AB020008AB020008AB0200085C
:1000D000AB020008AB020008AB020008AB0200084C
:1000E000AB020008AB020008AB020008AB0200083C
:1000F000AB020008AB020008AB020008AB0200082C
:10010000AB020008AB020008AB020008AB0200081B
:10011000AB020008AB020008AB020008AB0200080B
:10012000AB020008AB020008AB020008AB020008FB
:10013000AB0200080000000000000000AB02000855
:10014000AB020008AB020008AB020008AB020008DB
:10015000AB020008AB020008AB020008AB020008CB
:10016000AB020008AB020008AB020008AB020008BB
:10017000AB020008AB020008AB0200080000000060
:1001800000000000AB0200080000000000000000BA
:10019000AB0200080000000000000000AB020008F5
:1001A000000000000000000000000000AB0200089A
:1001B000AB020008AB020008AB020008AB0200086B
:1001C000AB02000800F002F800F052F814A696E81E
:1001D000000CB244B344DA4501D100F049F8BAE862
:1001E0000F000FA696E83000A5EB040504EB060708
:1001F000AAEB0704A7F101074FEA15154FEA3414DB
:10020000A4F10104AC4201D300F032F813F0010F65
:1002100018BFFB1A43F0010300F001F8DBE71847B1
:10022000D81F0000F81F0000103A24BF78C878C11A
:10023000FAD8520724BF30C830C144BF04680C60EC
:1002400070470000704700000023002400250026AE
:10025000103A28BF78C1FBD8520728BF30C148BF29
:100260000B6070471FB501F0AEFF1FBD10B510BD8C
:1002700000F0D0F81146FFF7F5FF01F0ADFD00F0FA
:10028000EEF803B4FFF7F2FF03BC00F0F5F800004E
:100290000948804709480047FEE7FEE7FEE7FEE71A
:1002A000FEE7FEE7FEE7FEE7FEE7FEE70448054956
:1002B000054A064B70470000891B0008C50100086D
:1002C00070020020700800207004002070040020DC
:1002D00053EA020C00F069802DE9F04B4FF0000664
:1002E000002B1FBFB3FA83F503FA05F424FA05F6D1
:1002F0005E4012BF1643B2FA82F502FA05F4C5F168
:1003000020051EBF22FA05FC44EA0C04203556EAFB
:10031000044C4FEA144418BF641C4FF000084FF01F
:100320000009904271EB030C39D3002919BFB1FACF
:1003300081F701FA07F6B0FA80F700FA07F6C7F17D
:1003400020071EBF20FA07FC46EA0C062037B6FB42
:10035000F4FCA7EB0507103F07F01F0BCBF12006BD
:100360002CFA06F60CFA0BFB44BFB3460026202FEE
:10037000A4BF5E464FF0000B5BEA060C08BF4FF0CF
:10038000010B19EB0B0948EB0608ABFB027C06FBE3
:1003900002CC0BFB03CCC01B71EB0C01C1E70B467D
:1003A000024641464846BDE8F08B13B5084318BFE6
:1003B0004FF0FF300146AFF30080BDE81C407047AE
:1003C0004FF0000200B5134694469646203922BFEE
:1003D000A0E80C50A0E80C50B1F12001BFF4F7AF39
:1003E000090728BFA0E80C5048BF0CC05DF804EB1B
:1003F000890028BF40F8042B08BF704748BF20F889
:10040000022B11F0804F18BF00F8012B7047704786
:1004100070477047754600F02BF8AE4605006946F8
:10042000534620F00700854618B020B5FFF73EFF81
:10043000BDE820404FF000064FF000074FF00008E5
:100440004FF0000BAC46ACE8C009ACE8C009ACE822
:10045000C009ACE8C00921F007018D46704710B50E
:100460000446AFF300802046BDE81040FFF709BF07
:10047000004870471000002001491820ABBEFEE77D
:100480002600020070470000FEE7000070470000F1
:1004900070B581B00022009290F83C20012A03D16F
:1004A000022001B070BD00BFD1F800E00122BEF112
:1004B0000A0F1FFA8EFC80F83C2009D34FEA4C0249
:1004C000036812FA8EF2A2F11E0403F10C0204E09A
:1004D00003680EEB4E0403F1100207251668A540D1
:1004E00026EA050515608D68166805FA04F434439C
:1004F00014604968062907D801EB81014A1F194693
:1005000051F8345F0FE000BF0C2901EB810105D8E1
:10051000A1F12302194651F8305F04E0A1F1410234
:10052000194651F82C5F1F24944025EA04040C60FE
:100530000CFA02F20C6842F2043CC4F2010C2243B1
:10054000ACF54174A3420A6006D0002180F83C104B
:10055000002001B070BD00BF1221BEF1110FC1F229
:10056000000118BF8E453BD1DCF800208E4522F4F7
:100570008002CCF80020DCF8002042F40002CCF825
:100580000020E2D140F20801C2F2000109684DF6F4
:100590008362C4F21B32A1FB0212910C01EB8101B8
:1005A0004900009100990029CFD000BF009901397E
:1005B000009100990029C8D0009901390091009953
:1005C0000029C2D000990139009100990029BCD0BE
:1005D00000990139009100990029E7D1B5E700BFE2
:1005E000BEF1120FB1D1DCF8001021F40001CCF8FB
:1005F0000010DCF8001041F48001CCF80010A4E7F2
:10060000002804BF0120704710B5016C00293DD0BF
:10061000016CC90645D4016C41F2021291430231CA
:1006200042F204320164C4F20102116821F4403143
:100630001160136890E812102343D0F810E01360A3
:100640004A68012422F480724A604A68C0F6007445
:1006500042EA0E224A604A6822F040724A604A68C2
:1006600042EA0C024A608A6822F400628A60C26828
:100670008B681A438A60826A8B68A24223F0706397
:100680008B608B6810D123F0405216E0044600F0D6
:1006900065F820460021616484F83C10016CC906AD
:1006A000B9D5012153E000BF1A438A608A6822F05D
:1006B00040528A60C26A8B681A438A608A6822F054
:1006C00002028A608A68037E90F8204042EA430270
:1006D0008A604A6884B142F400624A604A684EF215
:1006E000000322F460424A60426ACFF6FF734C680E
:1006F00003EB4232224301E022F400624A60CA6AFC
:1007000040F2000C22F47002CA62C3694269CFF65B
:10071000F07CCC6A0CEB03532343CB628B6823F44D
:1007200000738B6090F830308C6844EA43238B6010
:100730008B6823F480638B608B6843EA82228A6033
:1007400000214164026C012363F301020264002270
:1007500080F83C20BDE810400846704780B586B060
:1007600042F200210068C4F2010100228842059291
:10077000CDE903220292019202D006B080BD00BFF3
:1007800043F630000092C4F20200436943F48063F0
:100790004361436903F480630093009B0092036804
:1007A00043F004030360006800F004000090009828
:1007B000042001900320CDE9020201F5664001A961
:1007C00000F002F806B080BD2DE9F04F83B000F1D3
:1007D000200200F13E4741F60005009207F1FF7745
:1007E000C4F2020507224FEAB726A84208BF062234
:1007F00000254FF000084FF00009062E38BF4FEAE1
:10080000B72201920AE000BF09F1010908F10208CC
:10081000B9F1100F05F1040500F0A2800F68012264
:1008200002FA09FE17EA0E0AEED0D1F804C003223C
:100830000CF003077E1E02FA08F4012E6FEA040B87
:1008400012D88468CE6804EA0B0406FA08F634432A
:100850008460446824EA0E06CCF3001404FA09F418
:100860002643466004E000BF032F01D103271EE0AA
:10087000C6688C6806EA0B0604FA08F42643022FC1
:10088000C66014D16FF00302009E02EA590756F8C1
:1008900007C005F01C040F220B69A2402CEA0202DB
:1008A000A3401A43F251D1F804C00CF003070268C8
:1008B00007FA08F302EA0B021A431CF4403F0260F5
:1008C000A2D0002243F644030292C4F202031A6843
:1008D00043F6004442F480421A601A68C4F20104EC
:1008E00002F480420292029A29F003024FF6084C69
:1008F0002244CFF6FF7C52F80C3005F00C070F268F
:10090000BE40B343019E06FA07F73B4342F80C3062
:10091000A2684B6842EA0A0743F60C4CDE0258BF55
:1009200022EA0A07A760C4F2010CDCF800209E024C
:1009300042EA0A0758BF22EA0A07CCF80070626848
:100940009E0342EA0A0758BF22EA0A076760226844
:10095000DB0342EA0A0758BF22EA0A07276053E787
:1009600003B0BDE8F08F0000002A08BF09048161D0
:100970007047000040F26820C2F200000068704733
:1009800040F2000040F26821C2F20000C2F2000111
:1009900000780A68104408607047000080B543F68C
:1009A0000040C4F20200016841F400710160016876
:1009B00041F480610160016841F4807101600320AD
:1009C00000F086F8002000F005F800F027F800207D
:1009D00080BD000070B540F20006C2F2000640F291
:1009E00008013278C2F200014FF47A730968B3FB50
:1009F000F2F20446B1FBF2F1084600F093FB0F2C33
:100A00004FF0010508D838B94FF0FF3021460022D9
:100A1000002500F031F87460284670BD82B00020D7
:100A200043F640010190C4F202014A6842F4804258
:100A30004A604A6802F480420192019A0090086874
:100A400040F080500860086800F0805000900098E6
:100A500002B07047002848BF704700F01F01012214
:100A600002FA01F11C2202EAD0004EF20012CEF28C
:100A7000000281507047000010B54EF60C5CCEF2BB
:100A8000000CDCF80030C3F3022E8EF00704042CB7
:100A900028BF0424BEF103034FF0FF3E0EFA04F416
:100AA00038BF0023A14399400EFA03F39A43114340
:100AB00000F00F0200F160430901043A03F56443BA
:100AC0006244002848BF02F10C03197010BD0000F9
:100AD0004EF60C51CEF200010A684FF6FF031A40A1
:100AE00060F30A2242F0806040F0FD7008607047B9
:100AF000002804BF012070472DE9F04143F60808A3
:100B0000C4F202080446D8F8F8030D4600F00F00BE
:100B1000884207D288F8F853D8F8F80300F00F009D
:100B2000A84277D12068810717D5410705D5D8F8A5
:100B3000001041F4E051C8F80010010705D5D8F8BD
:100B4000001041F46041C8F80010D8F80010A26805
:100B500021F0F0011143C8F80010C00740D1D8F8C7
:100B6000F80300F00F00A84207D988F8F853D8F826
:100B7000F80300F00F00A8424CD12068410707D5C8
:100B8000D8F80010E26821F4E0511143C8F80010D1
:100B9000000708D5D8F80000216920F4604040EA39
:100BA000C100C8F8000000F07DF8D8F8001042F24B
:100BB000E012C1F30311C0F60002515C40F20802DA
:100BC00020FA01F140F20400C2F200000068C2F213
:100BD00000021160FFF7FEFE0020BDE8F08100BFBB
:100BE0006068811E022907D258F8081C89015CBF81
:100BF0000120BDE8F08111E0012807D158F8081C58
:100C000089035CBF0120BDE8F08107E058F8081CAB
:100C1000890703D40120BDE8F08100BFD8F8001097
:100C200021F003010843C8F80000FFF7A3FE0646C1
:100C300041F28837D8F80000616800F00C00B0EB92
:100C4000810F8CD0FFF796FE801BB842F2D90320AB
:100C5000BDE8F08140F2080043F60801C2F200004E
:100C6000C4F202010068096842F2F012C1F3822165
:100C7000C0F60002515CC8407047000040F2080016
:100C800043F60801C2F20000C4F2020100680968DC
:100C900042F2F012C1F34231C0F60002515CC8408A
:100CA0007047000010B543F60404C4F20204606803
:100CB000C0F3810142F20040C0F2F400DFE801F02D
:100CC0004202081841F20020C0F27A0010BD00BFB5
:100CD000216801F03F02216823684902C3F38811AB
:100CE00016D4A1FB00010023FFF7F2FA17E000BFC2
:100CF000216801F03F02216823684902C3F388118B
:100D000014D4A1FB00010023FFF7E2FA15E000BFB5
:100D100041F20020C0F27A004843B0FBF2F02168B3
:100D20000222C1F3014102EB410109E041F200203E
:100D3000C0F27A004843B0FBF2F02168C1F30271BF
:100D4000B0FBF1F010BD0000002804BF0120704787
:100D50002DE9F04182B00446007843F60006C00752
:100D6000C4F202060CD0B06800F00C00042840F079
:100D700089803068800303D56068002800F05081C6
:100D80002078800723D5B06810F00C0F11D0B06820
:100D900000F00C00082802D17068400209D5B06844
:100DA00000F00C000C2840F09F807068400200F1B9
:100DB0009B803068800703D5E068012840F03081CF
:100DC0003068216920F0F80040EAC10030602078E6
:100DD000000713D4207840072AD4A569002D00F01D
:100DE0001A81B06800F00C00082840F0AB80012D9B
:100DF00040F0E880012002B0BDE8F0816069002881
:100E000040F20000C4F2472000F088800121C0F8C1
:100E1000801EFFF7AFFD0546706F8007DAD4FFF73D
:100E2000A9FD401B0228F7D9032002B0BDE8F081DC
:100E3000306C5FEAC0080AD400200190306C40F0AA
:100E400080503064306C00F080500190019847F27F
:100E50000007C4F200073868C00537D4386840F48A
:100E600080703860FFF786FD054600BF3868C00512
:100E70002CD4FFF77FFD401B0228F7D9032002B0D6
:100E8000BDE8F081B06800F00C00082803D170685C
:100E900040023FF56EAFB06800F00C000C2803D1A3
:100EA000706840023FF565AF61683068B1F5803F1A
:100EB00007D0B1F5A02F40F0CB8040F48020306007
:100EC000306840F480303060CBE000BFA168306F04
:100ED000012905D0052957D140F004003067306F53
:100EE00040F00100306759E0E068002800F09C8085
:100EF0000020C4F2472001210160FFF73BFD0546B9
:100F0000306880073FF55CAFFFF734FD401B0228D7
:100F10004FF00300F4D902B0BDE8F0810021C0F821
:100F2000801EFFF727FD0546706F80077FF552AFE3
:100F3000FFF720FD401B0228F6D9032002B0BDE8D0
:100F4000F08100BF0027C4F2472700203866FFF772
:100F500011FD022D05460BD13068800140F19280D1
:100F6000FFF708FD401B02284FF00300F4D9D2E739
:100F7000306880014FD5FFF7FDFC401B02284FF081
:100F80000300F5D9C7E700BF20F001003067306FDC
:100F9000002920F00400306700F09880FFF7EAFC99
:100FA000054641F2883700BF306F800700F1A0800E
:100FB000FFF7E0FC401BB842F6D9032002B0BDE8C1
:100FC000F08100BF7068E16900F480028A4227D195
:100FD000216A00F03F028A4222D147F6C071626A5C
:100FE0000140B1EB821F1BD1A16A4FF6FF73C90309
:100FF000994300F44032A1F580318A4210D1E16A70
:1010000000F07062B2EB016F0AD1216B00F0E0409A
:10101000B0EB017F04D1002002B0BDE8F08100BF39
:10102000012002B0BDE8F0810020C4F24720002179
:101030000160FFF79FFC0546306880077FF5C7AE6B
:10104000FFF798FC401B02284FF00300F4D962E739
:1010500020F4803030603068002920F48020306037
:1010600050D0FFF787FC0546306880033FF588AE17
:10107000FFF780FC401B6428F6D9032002B0BDE8CE
:10108000F08100BF04F11C052FCD246B084340EA1A
:101090008210D9034FF6FF729143A1F5803140EAE7
:1010A0000560084340EA0470706001203866FFF76D
:1010B00061FC044630688001ADD4FFF75BFC001B87
:1010C00002284FF00300F5D925E700BFFFF752FCD7
:1010D000054641F2883700BF306F800708D5FFF71B
:1010E00049FC401BB8424FF00300F5D913E700BF9D
:1010F000B8F1000F3FF571AE306C20F080503064D5
:101100006BE600BFFFF736FC054600BF3068800382
:101110007FF536AEFFF72EFC401B64284FF003002E
:10112000F4D9F8E6411E0020B0EB116F1CBF01207E
:1011300070474EF21002CEF2000251604EF623517B
:10114000CEF20001F0230B70072190601160704710
:10115000704700007047000090F83C20012A4FF0D3
:10116000020254D010B580F83D200268D2F804E0A5
:10117000D2F808C00C682EF07003234341F2FF74CC
:10118000C4F20004A24253600EDC40F2FF73C4F2CA
:1011900000039A4216DCB2F1804F2BD040F200439C
:1011A000C4F2000324E000BF40F2FF33C4F20103A5
:1011B0009A4213DC41F60003C4F200039A4219D0AC
:1011C000002313E040F60003C4F200039A4211D05A
:1011D00040F60043C4F200030AE000BF44F20003FB
:1011E000C4F201039A4205D040F20043C4F2010365
:1011F0009A4204D149682CF080031943916001217F
:10120000002280F83D1080F83C20BDE810401046D8
:1012100070470000002804BF0120704710B5044645
:1012200090F83D0028B9002084F83C00204600F0EA
:101230001FF8022084F83D002068211D00F0B4FC56
:10124000012084F8460084F83E0084F83F0084F8CA
:10125000400084F8410084F8420084F8430084F898
:10126000440084F8450084F83D00002010BD0000D3
:1012700080B582B0006844F2FF31C4F201018842B7
:1012800016DCB0F1804F2DD040F20041C4F20001D5
:10129000884236D10020019043F64000C4F202009B
:1012A000016841F002010160006800F0020026E0E0
:1012B00044F20041C4F20101884225D044F6000105
:1012C000C4F2010188421CD10020019043F6400085
:1012D000C4F20200416841F480214160406800F49A
:1012E00080200CE00020019043F64000C4F2020090
:1012F000016841F001010160006800F00100019007
:10130000019802B080BD00BF0020019043F640006C
:10131000C4F202004168002241F40031416040689B
:10132000002100F40030019001981920FFF7A4FB80
:10133000192002B0BDE88040FFF78CBB90F83C203C
:10134000012A4FF002026CD080B580F83D20D0F821
:1013500000C04FF67772DCF8083023EA0202CCF8BE
:1013600008200B684F2B29DC1F2B45DD202B46D096
:10137000302B44D0402B40F0AF80D1F804E0C96856
:10138000DCF82030DCF8202022F00102CCF820200C
:10139000DCF8182022F0F00242EA011123F00A02E0
:1013A00042EA0E02CCF81810CCF82020DCF8081025
:1013B00041F0470121F0300128E000BF6F2B33DD01
:1013C000B3F5005F74D0B3F5805F21D0702B40F08F
:1013D0008380D1E901E3C968DCF8082043EA0E0301
:1013E00022F47F4243EA01211143CCF80810DCF8D3
:1013F000081041F0770109E00BB1102B6CD1DCF83B
:10140000081021F07001194341F00701CCF80810D1
:101410000022012180F83D10002180F83C10BDE839
:1014200080401046704700BF502B21D0602B53D115
:10143000D1F804E0C968DCF82030DCF8202022F084
:101440001002CCF82020DCF8182022F4704242EA86
:10145000013123F0A00242EA0E12CCF81810CCF8A9
:101460002020DCF8081041F0670121F01001CDE7E1
:10147000D1F804E0C968DCF82030DCF8202022F044
:101480000102CCF82020DCF8182022F0F00242EA19
:10149000011123F00A0242EA0E02CCF81810CCF82F
:1014A0002020DCF8081041F0570121F02001ADE7C1
:1014B000D1E901E3C968DCF8082043EA0E0322F40D
:1014C0007F4243EA01211143CCF80810DCF80810F0
:1014D00041F480419AE700BF01229AE7704700007B
:1014E00070B504460068C5680669B10716D515F0E1
:1014F000020113D06FF0020101610121217780699F
:10150000800703D02046FFF7E9FF05E0204600F002
:1015100013F9204600F06AFA00202077700719D5E9
:1015200015F0040016D020686FF00401016102215B
:101530002177806910F4407F04D02046FFF7CEFF6A
:1015400006E000BF204600F0F7F8204600F04EFA13
:1015500000202077300717D515F0080014D0206838
:101560006FF00801016104212177C069800703D071
:101570002046FFF7B3FF05E0204600F0DDF82046E7
:1015800000F034FA00202077F00619D515F010008D
:1015900016D020686FF01001016108212177C06921
:1015A00010F4407F04D02046FFF798FF06E000BF0C
:1015B000204600F0C1F8204600F018FA00202077FD
:1015C000F00718BF15F0010002D1300609D412E06F
:1015D00020686FF001010161204600F009FA300631
:1015E00009D515F0800006D020686FF080010161F8
:1015F0002046FFF7ADFD700609D515F0400006D076
:1016000020686FF040010161204600F0F3F9B00658
:1016100058BF70BD15F0200008D021686FF020027F
:1016200020460A61BDE87040FFF794BD70BD000020
:1016300080B586B0006844F2FF31C4F201018842EF
:101640004FF000010591CDE90311CDE901111BDC3B
:10165000B0F1804F36D041F60001C4F2000188425B
:1016600068D10020009043F63000C4F20200016807
:1016700041F0020101600068092100F002000090C1
:1016800000984FF4404047E044F20041C4F20101A9
:1016900088422FD044F60001C4F20101884249D1AA
:1016A0000020009043F63000C4F20200016841F0CF
:1016B00002010160006800F00200009000984FF401
:1016C000007028E00020009043F63000C4F20200D1
:1016D000016841F0010101600068012100F0010092
:1016E0000090009840F20040C4F202000191A0F581
:1016F000806016E00020009043F63000C4F2020043
:10170000016841F002010160006800F002000090F1
:1017100000984FF480700321019040F20040C4F221
:101720000200022202920022059101A9CDE90322C2
:10173000FFF74AF806B080BD7047000090F83C30D3
:10174000012B04BF022070474FEAB202032A00F2C5
:10175000FF802DE9F043DFE802F003B13F7F00BFD7
:10176000036840F200461C6A1A6A24F0020422F060
:1017700001021A621A46D3F804C052F818EF8F68B3
:1017800043F48065C4F20106B54244EA070405D17A
:10179000CF6824F00C0427F004073C430F68B542DF
:1017A00006D1D1E905582CF440762E4346EA080CC0
:1017B0002EF073063743C3F804C09F614F68096970
:1017C0005F631C629F6947F008079F619F6927F06C
:1017D00004079F61B1E000BF036840F200481C6A43
:1017E0001A6A24F4007422F480721A621A46D3F83A
:1017F00004C052F81CEF8F6843F48065C4F20108FE
:10180000454544EA072408D1CF6840F2FF463F022D
:1018100024F4406427EA06063443D1F80090454595
:1018200006D1D1E905562CF440572E4347EA061C51
:101830002EF0730747EA0907C3F804C0DF614F6859
:101840000969DF631C62DF6947F00807DF61DF6950
:1018500027F00407DF6170E0036840F20045D3F829
:1018600020C01A6A43F4806722F480521A621A4632
:101870005C6852F81C8FD1F800E08E68C4F2010554
:10188000AF4204D14D6924F4804444EA85142CF419
:10189000005747EA063728F4E64646EA0E265C601B
:1018A000DE614E6809691E641F62DF6947F40067E4
:1018B000DF61DF6927F48067DF613DE0036840F2A4
:1018C00000481C6A1A6A24F0200422F010021A62EE
:1018D0001A46D3F804C052F818EF8F6843F48065B5
:1018E000C4F20108454544EA071407D1CF686FF0F8
:1018F000400624F0C00406EA07163443D1F80090ED
:10190000454506D1D1E905562CF440672E4347EAF8
:10191000860C2EF4E64747EA0927C3F804C09F6106
:101920004F6809699F631C629F6947F400679F6164
:101930009F6927F480679F6109021368194311604A
:101940000021BDE8F043002280F83C2008467047A3
:101950000121002280F83C2008467047002804BF7F
:101960000120704710B5044690F83D0028B90020CA
:1019700084F83C00204600F01FF8022084F83D0067
:101980002068211D00F010F9012084F8460084F839
:101990003E0084F83F0084F8400084F8410084F859
:1019A000420084F8430084F8440084F8450084F839
:1019B0003D00002010BD0000006841F60001C4F2A7
:1019C0000001884218BF704781B00020009043F6A4
:1019D0004000C4F20200016841F04001016000686B
:1019E00000F040000090009801B070477047000080
:1019F0007047000070470000002804BF01207047B6
:101A000010B5044690F8410028B9002084F8400041
:101A1000204600F021F8242084F841002068C168A5
:101A200021F40051C160204600F060F9206801698E
:101A300021F490410161416921F02A014161C168AD
:101A400041F40051C16000202021606484F84110FD
:101A500084F84210606310BD80B586B044F2004146
:101A60000068C4F20001002288420592CDE90322F9
:101A70000292019202D006B080BD00BF43F6300052
:101A80000092C4F20200036943F400330361036966
:101A900003F400330093009B0092036843F00103BA
:101AA0000360006800F00100009000980C20019095
:101AB0000220CDE90202032004900720059001F5E1
:101AC000DE3001A9FEF780FE06B080BDFEE7000013
:101AD000FEE70000FEE700007047000070470000CE
:101AE000FEF74EBF70B594B007AC20463421FEF728
:101AF00067FC002543F640000695CDE90455CDE985
:101B000002550195C4F202000168012241F08051A2
:101B100001600068022600F080500190019847F2B1
:101B200000000195C4F20000016862F38F3101608A
:101B3000006800F440400190019810200B900F9035
:101B40004FF4A87010900420CDE9110620460796A6
:101B50000A92CDE90D651396FFF7F6F810B172B64B
:101B6000FEE700BF0F20CDE902064FF48050CDE91B
:101B7000050502A802210495FEF7BAFF10B172B65E
:101B8000FEE700BF14B070BD4EF68850CEF20000E4
:101B9000016841F4700101607047000040F2B80034
:101BA000C2F20000FFF79CBC10B540F6FF3E036890
:101BB000C4F2000E40F2004C7045C4F2010C25DC6A
:101BC000B0F1804F2FD040F20042C4F200029042A8
:101BD00029D040F60002C4F20002904223D041F620
:101BE000FF72C4F20002904227DC70453ADCB0F18B
:101BF000804F5BD040F20042C4F20002904255D0C8
:101C000040F60002C4F200024EE000BF40F600427F
:101C1000C4F20002904206D0604504D00022C4F213
:101C200001029042DBD14A6823F07003134341F66E
:101C3000FF72C4F200029042D7DD43F6FF72C4F295
:101C40000102904220DC42F20002C4F20002904203
:101C50002CD00022C4F20102904227D0604525D04A
:101C600028E000BF40F60042C4F2000290421DD0BE
:101C700041F60002C4F20002904217D041F6004241
:101C8000C4F2000210E000BF44F20002C4F20102FC
:101C900090420BD044F60002C4F20102904205D0FB
:101CA00044F20042C4F20102904203D1CA6823F414
:101CB0004073134323F080024B69D1F800E08C6835
:101CC0001A430260C46240F48062C0F828E06245B2
:101CD00004BF09690163012141610169C90708BFA6
:101CE00010BD016921F00101016110BDB0B50446CC
:101CF000006804F108030ECB0569194325F440552B
:101D00002A4302616269E3691143C268194349F2D7
:101D10000C639A431143C1604169A26921F4407187
:101D200041F20043114340F48062C4F201039A423D
:101D3000416103D1FEF7A2FF02E000BFFEF78AFF78
:101D4000E1694FF69C7563681922C0F6FF75B1F51D
:101D5000004FA0FB02011FD15A00DB0FFEF7B8FABB
:101D600048F21F51C5F2EB11A0FB01235A0905F1FE
:101D7000805302FB0300322303EBC000A0FB0101F0
:101D80004FF4F87000EA111000EB0210C1F3421199
:101D9000084421688860B0BD9A009B0FFEF798FA4E
:101DA00048F21F51C5F2EB11A0FB01235A0902FBB7
:101DB0000500322303EB0010A0FB0101F02000EA34
:101DC000511000EB0210C1F34311084421688860F0
:101DD000B0BD0000FEE700008EB040F60008C4F27F
:101DE0000208FEF7DBFDFFF77DFE002743F630001B
:101DF0000B97CDE90977CDE907770297C4F2020086
:101E00000168002241F0040101600168082401F02A
:101E10000401029102990297016841F0800101607A
:101E2000016801F08001029102990297016841F076
:101E300001010160016801F001010291029902971C
:101E4000016841F0020101600068082100F0020011
:101E5000029002984046FEF787FDA8F500652846E7
:101E6000202100224FF02009FEF77EFD4FF40050A4
:101E700007904FF4041007AECDE9080740463146FD
:101E8000FEF7A2FC0794012440463146CDE90847FD
:101E90000A97FEF799FC28463146CDE90794CDE92B
:101EA0000977FEF791FC0220CDE90707A8F58060CD
:101EB00031460997FEF788FC40F270000123A8F52F
:101EC0006641C2F20000C0F600730A974FF4003278
:101ED000047680F82070C0E90A37C46180F8307059
:101EE00080E88600C0E903774461FEF789FB18B1FA
:101EF00072B600BFFEE700BF0C2007A991C140F2F7
:101F00007000C2F2000007A9FEF7C2FA10B172B663
:101F1000FEE700BF40F290100021C2F200004FF037
:101F2000804240F2473340F2CF770591CDE903116B
:101F3000CDE90011CDE90C11CDE90A11C0E900236A
:101F4000C0E9021701618161FFF764F910B172B64F
:101F5000FEE700BF4FF48050029040F29010C2F2B2
:101F6000000002A9FFF7EAF910B172B6FEE700BF60
:101F700040F29010C2F20000FFF7F0FC10B172B610
:101F8000FEE700BF40F29010C2F200006946FFF782
:101F9000E3F818B172B600BFFEE700BF60200790FB
:101FA00040F290100024C2F2000007A90022CDE9FF
:101FB00008440B94FFF7C2FB10B172B6FEE700BFF6
:101FC00040F29010C2F20000FFF732FB40F2D8104E
:101FD000A8F50131C2F200004FF6FE730A94CDE974
:101FE0000844CDE90244532280E81600C0E90334D6
:101FF0008461FFF70FF918B172B600BFFEE700BFAA
:102000004FF48050079040F2D810C2F2000007A9A8
:10201000FFF794F910B172B6FEE700BF40F2D81096
:10202000C2F2000002A9FFF797F818B172B600BF1C
:10203000FEE700BF40F2B8000021A8F54442C2F21A
:102040000000532340F2E737CDE90C11CDE90A1126
:10205000C0E90023C0E9021701618161FFF7DAF8E6
:1020600010B172B6FEE700BF40F2B800C2F2000045
:10207000FFF774FC10B172B6FEE700BF6020079056
:1020800040F2B8000024C2F2000007A90022CDE906
:1020900008440B94FFF752FB10B172B6FEE700BF85
:1020A00040F2B800C2F20000FFF7C2FA40F200109E
:1020B000A8F54041C2F2000040F2E733CDE90C44FC
:1020C000CDE90A44532280E81600C0E90334846154
:1020D000FFF7A0F810B172B6FEE700BF40F20010A3
:1020E000C2F20000FFF73AFC10B172B6FEE700BF83
:1020F0006020079040F200100024C2F2000007A9FF
:102100000022CDE908440B94FFF718FB10B172B61A
:10211000FEE700BF40F20010C2F20000FFF788FAAD
:1021200040F24810A8F5F831C2F2000040F2E7335F
:10213000CDE90C44CDE90A44532280E81600C0E9F9
:1021400003348461FFF70AFC10B172B6FEE700BFEA
:10215000602007900020CDE908000B9040F2481065
:10216000C2F2000007A90022FFF7E8FA10B172B628
:10217000FEE700BF40F24810C2F2000007A90422A7
:10218000FFF7DCFA10B172B6FEE700BF40F248106C
:10219000C2F20000FFF74CFA40F22020A8F5E2312D
:1021A000C2F2000000230C274FF4E13280E80E0059
:1021B000C0E90333C0E90573C361FFF71DFC08B133
:1021C00072B6FEE7FEE7F1EE100A4FF6FF71C0F2BD
:1021D000C03120EA010040F04070E1EE100A704783
:1021E00000000000000000000102030406070809C7
:1021F0000000000001020304182200080000002073
:10220000100000002802000828220008100000200A
:1022100060080000480200080100000010000000F3
:082220000024F400000000009E
:04000005080001C529
:00000001FF
