:020000040800F2
:1000000048070020B5010008A91E0008A11E00082D
:10001000A51E000821030008692200080000000056
:100020000000000000000000000000005D22000849
:1000300025030008000000003921000861220008A3
:10004000CF010008CF010008CF010008CF01000850
:10005000CF010008CF010008CF010008CF01000840
:1000600029030008CF010008CF010008CF010008D4
:10007000CF010008CF010008CF010008CF01000820
:10008000CF010008CF010008CF010008CF01000810
:10009000CF010008CF010008CF010008CF01000800
:1000A000CF010008CF010008CF010008CF010008F0
:1000B000CF010008CF010008CF010008CF010008E0
:1000C000CF010008CF010008CF010008CF010008D0
:1000D000CF010008CF010008CF010008CF010008C0
:1000E000CF010008CF010008CF01000800F002F89E
:1000F00000F050F814A696E8000CB244B344DA4578
:1001000001D100F047F8BAE80F000FA696E83000DA
:10011000A5EB040504EB0607AAEB0704A7F101070A
:100120004FEA15154FEA3414A4F10104AC4201D38F
:1001300000F030F813F0010F18BFFB1A43F0010371
:1001400000F001F8DBE718476C2A00008C2A000059
:10015000103A24BF78C878C1FAD8520724BF30C8F3
:1001600030C144BF04680C60704700007047000055
:100170000023002400250026103A28BF78C1FBD8B0
:10018000520728BF30C148BF0B6070471FB51FBD65
:1001900010B510BD00F031F81146FFF7F7FF02F07F
:1001A00065F800F04FF803B4FFF7F2FF03BC00F06E
:1001B00057F800000948804709480047FEE7FEE776
:1001C000FEE7FEE7FEE7FEE7FEE7FEE7FEE7FEE707
:1001D00004480549054A064B70470000652200089F
:1001E000ED000008480100204807002048030020D7
:1001F00048030020704770477047754600F02CF8A0
:10020000AE4605006946534620F00700854618B003
:1002100020B5FFF7DDFFBDE820404FF000064FF0AE
:1002200000074FF000084FF0000BAC46ACE8C009E7
:10023000ACE8C009ACE8C009ACE8C00921F007018E
:100240008D46704710B50446AFF300802046BDE8E8
:100250001040FFF7A8BF00000048704718000020BA
:1002600001491820ABBEFEE72600020070470000DF
:10027000B0B582B004460020019021688A68D20798
:100280004BD1886840F00100886040F20800C2F25B
:10029000000000684DF68361C4F21B31A0FB010130
:1002A000880C01900198A0B1019801380190019843
:1002B00078B1019801380190019850B10198013846
:1002C0000190019828B10198013801900198002807
:1002D000EAD100F0F3FC21688968C9071CD1054602
:1002E00003E000BF8068C00716D100F0E7FC411BA7
:1002F00020680329F6D38168C907F3D1A06A40F0CA
:100300001000A062E06A40F00100E062002084F882
:100310002400012002B0B0BD002002B0B0BD00003A
:10032000FEE7000070470000042000F0A7BB0000BB
:1003300010B581B00022009290F82420012A03D148
:100340000221084601B010BD4B680122062B80F83F
:10035000242033D8D0F800C003EB83035A1F1F2397
:10036000DCF834E003FA02F40B682EEA040403FA22
:1003700002F22243CCF83420092B03EB430249D983
:10038000DCF80CE01E3A0724896894402EEA040445
:10039000914023F001022143102ACCF80C1043D1E4
:1003A00042F20841C4F20101A1F10802944543D090
:1003B000816A41F020018162012136E0D0F800C05D
:1003C0000C2B03EB830213D8233A1F23DCF830E015
:1003D00003FA02F40B682EEA040403FA02F2224341
:1003E000CCF83020092B03EB4302C9D812E000BF40
:1003F000413A1F23DCF82CE003FA02F40B682EEAE2
:10040000040403FA02F22243CCF82C20092B03EB5C
:100410004302B5D8DCF81030072489689440A34320
:1004200091401943CCF810100021002280F82420BC
:10043000084601B010BD00BF0A681202F4D40A6871
:10044000102B42F400020A60EED140F20801C2F221
:10045000000109684DF68362C4F21B32A1FB02124F
:10046000910C01EB81014900009100990029DBD03A
:1004700000990139009100990029D5D000990139DE
:10048000009100990029CFD000990139009100997D
:100490000029C9D0009901390091009900294FF035
:1004A0000001E5D1C1E700000068C06C70470000A2
:1004B000002804BF01207047B0B50446806A28B107
:1004C00021688868C0070CD115E000BF0020E062F9
:1004D00084F82400204600F097F821688868C00757
:1004E00009D0886820F00100886000F0E7FB2168EF
:1004F0008A68D20726D1A06AC0063AD4A06A41F21F
:10050000021290430230A062E069D4E9013240EA6D
:10051000030C531EB3FA83F35D091346B2F5807FD3
:1005200018BF2B02207D257B01284CEA45002CD1E9
:1005300035B3A56A45F02005A562E56A45F00105D9
:10054000E56222E0054602E08868C007D3D000F0EB
:10055000B5FB401B21680328F6D38868C007F3D099
:10056000A06A40F01000A062E06A40F00100E06282
:10057000A06AA06A40F01000A0620120B0BD00BFD8
:10058000A56903EB4533A3F5C0534D68B2F5807FF1
:1005900025F4694543EA05034B608B684FF2FD750E
:1005A000CFF6E17503EA050343EA00038B6001D04F
:1005B000012A07D122690023CFF6F07303EB025220
:1005C00001E000BF0022CB6A23F470031A43CA6221
:1005D000896840F6FE62CFF61F721140814207D152
:1005E0000020E062A16A012262F30101A162B0BDB4
:1005F000A06A40F0100020F00200A062E06A40F023
:100600000100E0620120B0BD70B586B040F6000484
:10061000C4F20104006804F5E05188424FF0000084
:10062000CDE90400CDE9020002D006B070BD00BFE4
:1006300041F21800C4F20200016802AD41F40071F9
:1006400001600168032601F40071019101990168BC
:1006500041F004010160016801F004010191019978
:10066000016841F0080101600068294600F00800B7
:10067000019001982046CDE9026600F00BFA04F5DE
:1006800080602946CDE9026600F004FA06B070BD2C
:100690002DE9F04182B000270D460446019700F095
:1006A0000DFB21688A68D20544D406464868C00517
:1006B00003D4C86A10F4700F46D040F20800C2F2AA
:1006C0000000076842F292480220C1F2492800F077
:1006D000E7FB216844F624130A69B7FBF0F0C2F285
:1006E00092431A4206D1CA6844F62413C0F2920318
:1006F0001A425BD00A6912EA080F07D1CA6842F2AF
:100700009243C0F249031A4200F0C0800A6949F2DC
:100710004923C0F224031A424FF0FC0254D1CF689F
:100720001F4208BF5422019B02FB00F7BB4250D37B
:10073000C3E000BFA06A40F02000A06284F82470EB
:10074000012002B0BDE8F0810868800700F1B580A3
:10075000681C00F0A880FDB90868800770D508689B
:10076000800700F1AA800868800769D508688007BB
:1007700000F1A3800868800762D50868800700F14F
:100780009C80086880075BD508688007E4D594E002
:100790000868800700F1918000F090FA801B2168C2
:1007A000A842F5D908688007F2D449E00A6912EA3C
:1007B000080F4FF0290207D1CB6842F29247C0F2EE
:1007C00049073B4208BF1422019B02FB00F7BB42D2
:1007D00073D2681C52D05DBB0198B84230D30198E7
:1007E000013001900198B84267D20198B84227D3EE
:1007F0000198013001900198B8425ED20198B84248
:100800001ED30198013001900198B84255D2019849
:10081000B84215D30198013001900198B842DBD35A
:100820004BE000BF0198013001900198B84235D2E9
:1008300000F044FA801BA842F4D90198B842F1D2E2
:10084000A06A40F00400A062002084F82400032085
:1008500002B0BDE8F08100BF01980130019001981D
:10086000B8422AD20198013001900198B84224D2AE
:100870000198013001900198B8421ED201980130D0
:1008800001900198B842E7D317E000BF5422019BC2
:1008900002FB00F7BB429CD30FE000BF21680CE0D5
:1008A0000868800709D40868800706D408688007AC
:1008B0005CBF08685FEA8070F2D56FF012000860D4
:1008C000A06A40F40070A062886800F46020B0F56F
:1008D000602F01D1207B18B1002002B0BDE8F0816B
:1008E000A06A20F48070A062A06AC004F4D4A06A58
:1008F00040F00100A062002002B0BDE8F0810000DD
:1009000010B5044690F82400012804BF022010BD51
:10091000012084F824002046FFF7AAFC20B1002023
:1009200084F82400012010BD42F2044C2068A16A22
:10093000C4F2010C40F2013291430CF57F7201F5D3
:1009400080719042A16229D0A16A21F48011A16234
:100950004168490504D5A16A012363F30D31A16201
:10096000A16A0023C9044FF0000144BFE16A21F0ED
:100970000601E1626FF0020184F8243001608168B1
:1009800001F46021B1F5602F1BD1904214D0816831
:1009900041F4A0018160002010BD00BFDCF8001010
:1009A00011F4702FD0D0A16A41F48011A162DCF85B
:1009B00000104905CFD4D3E7DCF8001011F4702FF4
:1009C000E5D0816841F480118160002010BD0000F5
:1009D000B0B5044690F82400012804BF0220B0BD41
:1009E0000121206884F824108168C90709D0816832
:1009F00021F00101816000F061F921688968C9076F
:100A00000ED1214651F8280F41F2011220EA0202CC
:100A1000002042F001020A60002184F82410B0BDD9
:100A2000054602E08068C007EBD000F047F9411BA3
:100A300020680329F6D38168C907F3D0A06A21464C
:100A400040F01000A06251F82C2F0120E1E70000D7
:100A5000B0B5044600F032F9054640F20000C2F29B
:100A600000000078611C18BF044400BF00F026F9A4
:100A7000401BA042FAD3B0BD7047000040F21441C1
:100A8000C4F201010A68024214BF08607047FFF710
:100A9000F3BF00002DE9F04F82B00E68002E00F089
:100AA000FD8041F20042C4F20102042340F2004EF4
:100AB000904208BF03234FF6FF7CC4F2010E00935F
:100AC00000240123C1F2100C4FF0000A4FF000097E
:100AD0004BE000BF41F20002C4F20102009F9042CD
:100AE00008BF022704F00C030F229A402BEA0202EF
:100AF00007FA03F34FEA9A051A4346F825204E6891
:100B000040F20C45F202DEF8082054BF22EA080247
:100B100042EA0802C4F20105CEF808202A68B302AE
:100B200054BF22EA080242EA08022A60B303DEF850
:100B3000042054BF22EA080242EA0802F303CEF876
:100B40000420DEF800204FF0010354BF22EA08021F
:100B500042EA0802CEF800200E680AF1010A36FACD
:100B60000AF204F1040400F0998003FA0AFB16EA81
:100B70000B08F1D04E68664512DC122E56D8DFE81D
:100B800006F0350B4D495555555555555555555547
:100B900055555545510000BFD1F80C9046E000BFB7
:100BA0004FF6FF72C1F2210296420FDC0022C1F221
:100BB000110296421AD00022C1F21202964215D0BA
:100BC0000022C1F22102964210D02FE00022C1F291
:100BD000220296420AD00022C1F23102964205D08A
:100BE0000022C1F23202964220D100BF8A684AB187
:100BF000012A14BFC0F814B0C0F810B04FF00809B3
:100C000014E000BF4FF0040910E000BFCA6802F111
:100C100004090BE04FF0000908E000BFCA6802F1C8
:100C2000080903E0CA6802F10C0900BF0246264623
:100C3000B8F5807F24BF0432203E17680F25B540E9
:100C400027EA050509FA06F635431560CA79D20682
:100C50007FF582AF41F21803C4F202031A68AEF5C1
:100C60007E7642F001021A601A6802F001020192D7
:100C7000019A2AF0030256F802B040F60002C4F2CC
:100C80000102904208D040F60042C4F201029042B4
:100C90007FF420AF012725E7002723E702B0BDE856
:100CA000F08F00008068084018BF012070470000E6
:100CB000002A08BF090401617047000040F2441097
:100CC000C2F2000000687047002804BF012070478E
:100CD00070B504460068D4E901124CF6CC430360B9
:100CE00045F25553036041608260FFF7E7FF2168DA
:100CF000CA68920712D0054641F23D3603E000BFB4
:100D0000C86880070AD0FFF7D9FF401B2168B042AE
:100D1000F6D3C8688007F3D0032070BD4AF6AA2036
:100D20000860002070BD000001684AF6AA22002079
:100D30000A60704740F2000040F24411C2F2000025
:100D4000C2F2000100780A68104408607047000091
:100D500080B542F20000C4F20200016841F01001C7
:100D60000160032000F08CF80F2000F005F800F07F
:100D700027F8002080BD000070B540F20006C2F2E6
:100D8000000640F208013278C2F200014FF47A7393
:100D90000968B3FBF2F20446B1FBF2F1084601F038
:100DA00069F80F2C4FF0010508D838B94FF0FF3023
:100DB00021460022002500F037F87460284670BDF7
:100DC00082B041F21800C4F202000168022241F030
:100DD00001010160016801F001010191019941687F
:100DE00041F080514160406800F0805000900098D0
:100DF0000420C4F20100016862F31A61016002B0CC
:100E000070470000002848BF704700F01F01012212
:100E100002FA01F11C2202EAD0004EF20012CEF2D8
:100E2000000281507047000010B54EF60C5CCEF207
:100E3000000CDCF80030C3F3022E8EF00704042C03
:100E400028BF0424BEF103034FF0FF3E0EFA04F462
:100E500038BF0023A14399400EFA03F39A4311438C
:100E600000F00F0200F160430901043A03F5644306
:100E70006244002848BF02F10C03197010BD000045
:100E80004EF60C51CEF200010A684FF6FF031A40ED
:100E900060F30A2242F0806040F0FD700860704705
:100EA000012821D002280DD0102808D141F20401D8
:100EB000C4F202010A6851F8040CC00134D40020C5
:100EC000704700BF80B500F0C7F941F20401C4F2D9
:100ED000020109680222C1F3813102EB4101B0FB3A
:100EE000F1F0BDE88040704741F20400C4F2020016
:100EF000C16940F202320A40B2F5817F04BF4FF46B
:100F00000040704701F44071B1F5407F18D0B1F551
:100F1000007F1CBF00207047006A49F640418007EF
:100F200001EAE070704700BFC2F3834015A3185C6C
:100F3000D2030DD440F60012C0F23D02504313E03C
:100F400050F8040C4FF22441800301EAE07070472E
:100F50000A6810A3C2F340429A5C41F20023C0F237
:100F60007A03B3FBF2F250430968490248BF704765
:100F70004AF6AB214000CAF6AA21A0FB01014808AD
:100F8000704700BF02030405060708090A0B0C0D91
:100F90000E0F1010010200002DE9F04182B004464E
:100FA000007841F21C06C007C4F202064AD030683D
:100FB0005FEAC00808D4306840F080503060306884
:100FC00000F080500190019847F20007C4F200073A
:100FD0003868C00512D4386840F480703860FFF774
:100FE0006DFE05463868C00508D4FFF767FE401B54
:100FF0006428F7D9032002B0BDE8F081706810F4CE
:10100000407012D0616801F4407188420DD0706860
:1010100040F24042C4F24222012320F440711360A6
:101020000023C0071360716026D17068616820F4E6
:1010300040700843B8F1000F706003D4306820F0AE
:10104000805030602068810707D556F8181CA268C8
:1010500021F44041114346F8181CC00607D556F844
:10106000180CE16820F48000084346F8180C0020B2
:1010700002B0BDE8F08100BFFFF720FE054641F257
:10108000883700BF70688007CFD4FFF717FE401B7A
:10109000B8424FF00300F5D9EAE70000002804BF8A
:1010A000012070472DE9F04381B042F20008C4F2FC
:1010B00002080446D8F800000D4600F007008842F8
:1010C0000CD2D8F8000020F007002843C8F8000030
:1010D000D8F8000000F00700A8426CD1206841F267
:1010E00004098107C4F2020917D5410705D5D9F8CB
:1010F000001041F4E061C9F80010010705D5D9F8E6
:10110000001041F46051C9F80010D9F80010A2682D
:1011100021F0F0011143C9F80010C00742D1D8F8FE
:10112000000000F00700A8420CD9D8F8000020F019
:1011300007002843C8F80000D8F8000000F00700B6
:10114000A84238D12068410707D5D9F80010E268D5
:1011500021F4E0611143C9F80010000708D5D9F85F
:101160000000216920F4605040EAC100C9F8000085
:10117000D9F8002002F00C00082841F20020C0F24B
:101180007A004DD142F6A433C2F38341C0F6000386
:10119000595CD20338D440F60010C0F23D004843F9
:1011A0003EE000BF606859F8041C022808D00128FE
:1011B00026D1890306D4012001B0BDE8F08300BF29
:1011C0008901F8D5D9F8001021F003010843C9F8C6
:1011D0000000FFF773FD064641F28837D9F800009A
:1011E000616800F00C00B0EB810F98D0FFF766FD4E
:1011F000801BB842F2D9032001B0BDE8F08300BFE4
:101200008907D8D5DEE700BFD9F8002042F6A2331F
:10121000C2F34042C0F600039A5C4843B0FBF2F0D0
:10122000D9F8001042F68A32C1F30311C0F6000269
:10123000515C40F2080220FA01F140F20400C2F2CF
:1012400000000068C2F200021160FFF795FD002067
:1012500001B0BDE8F083000040F2080041F2040153
:10126000C2F20000C4F202010068096842F69A3234
:10127000C1F3C221C0F60002515CC84070470000B3
:10128000002804BF012070472DE9F04182B00446D8
:10129000007841F20006C007C4F202060CD0706864
:1012A00000F00C00042840F081803068800303D5F2
:1012B0006068002800F04681207880071BD57068A0
:1012C00010F00C0F09D0706800F00C00082840F0F6
:1012D00087807068C00300F183803068800703D581
:1012E0002069012840F02E813068616920F0F80003
:1012F00040EAC10030602078000713D4207840070E
:101300002CD4E569002D00F01881706800F00C0005
:10131000082840F0A780012D40F00481012002B090
:10132000BDE8F081A069002800F084800020C4F2AC
:1013300042200121C0F88014FFF7C0FC054600BF21
:10134000706A800700F1B280FFF7B8FC401B0228EA
:10135000F6D9032002B0BDE8F08100BFF0695FEA72
:10136000C00808D4F06940F08050F061F06900F0E6
:1013700080500090009847F20007C4F200073868D8
:10138000C00549D4386840F480703860FFF796FC97
:10139000054600BF3868C0053ED4FFF78FFC401BF0
:1013A0006428F7D9032002B0BDE8F081706800F02E
:1013B0000C00082803D17068C0033FF576AF616860
:1013C0003068002900F00C81B1F5A02F00F00081F9
:1013D000B1F5803F40F01A8140F480301CE100BF3D
:1013E0002069002840F20000C4F2422000F088800A
:1013F00001210160FFF762FC054600BF30688007ED
:101400003FF572AFFFF75AFC401B0228F6D90320C4
:1014100002B0BDE8F08100BFE168306A002900F049
:101420009D80052900F09280012940F0AF8040F0B6
:101430000100B1E00020C4F242200021C0F8801475
:10144000FFF73CFC054600BF706A80077FF556AF8A
:10145000FFF734FC401B0228F6D9032002B0BDE898
:10146000F08100BF0027C4F2422700203866FFF752
:1014700025FC022D05460DD13068800140F1DE804B
:10148000FFF71CFC401B02284FF00300F4D902B008
:10149000BDE8F081306880014FD5FFF70FFC401B9D
:1014A00002284FF00300F5D9F1E700BF40F2080031
:1014B000C2F20000006844F6D351C1F26201A0FB01
:1014C0000101480A019000BF00BF0198411E002899
:1014D00001913FF413AF00BF0198411E0028019114
:1014E0003FF40CAF00BF0198411E002801913FF46A
:1014F00005AF00BF0198411E00280191E4D1FDE62F
:1015000000210160FFF7DAFB054600BF3068800765
:101510007FF5F1AEFFF7D2FB401B02284FF003002E
:10152000F4D9B4E77068216A00F480328A4209D1A4
:10153000616A00F47010884204D1002002B0BDE856
:10154000F08100BF012002B0BDE8F08140F004004E
:101550003062306A40F001001EE000BF20F0010060
:101560003062306A20F004003062FFF7A7FB0546C6
:1015700041F28837306A800720D5FFF79FFB401B78
:10158000B8424FF00300F5D981E700BF20F0010019
:101590003062306A20F004003062FFF78FFB0546AE
:1015A00041F28837306A800708D4FFF787FB401B79
:1015B000B842F7D9032002B0BDE8F081B8F1000FBE
:1015C0003FF59FAEF06920F08050F06199E600BFD2
:1015D00040F480203060306840F480301CE000BF70
:1015E00020F480303060306820F480203060FFF7D5
:1015F00065FB0546306880037FF55EAEFFF75EFB56
:10160000401B64284FF00300F4D940E720F48030F9
:101610003060306820F480203060FFF74FFB0546D3
:10162000306880033FF548AEFFF748FB401B642855
:10163000F6D9032002B0BDE8F08100BF206AB0F502
:10164000803F05D17168A26821F4003111437160B7
:101650007168626A21F474111143084370600120BB
:101660003866FFF72BFB0446306880013FF565AF15
:10167000FFF724FB001B02284FF00300F4D906E714
:1016800070B528B1416A29B100210161142106E039
:10169000012070BD4168B1F5827F02D01C2100227B
:1016A00042500026866290F8511029B980F85060A7
:1016B000054600F039F82846022180F8511090E8DC
:1016C0002E0002F482720C6803F4044324F04004F8
:1016D0000C601A4405F4006305691A4405F002031E
:1016E00045691A4405F001038569C4691A4405F483
:1016F00000731A4404F03803046A1A4404F08003A7
:10170000846A1A4304F400531A430A60042202EA6A
:1017100015424A60CA6922F40062CA610121466525
:1017200080F85110304670BD70B586B040F60004A8
:10173000C4F20104006804F5205100268842059691
:10174000CDE90366029601D006B070BD41F21800E3
:10175000C4F20200016802AD41F4805101600168E9
:1017600001F4805101910199016841F00401016087
:101770000068294600F0040001900198A020029022
:1017800002200390032005902046FFF783F94020B4
:10179000CDE90206204629460496FFF77BF906B0FC
:1017A00070BD00002DE9F04182B0044690F8510070
:1017B000012819D160681D4617460E46B0F5827F94
:1017C00001D1A068A0B1FFF779FA8046002E4FF052
:1017D000010018BF002F03D102B0BDE8F08100BFA7
:1017E00094F85000012811D1022002B0BDE8F08128
:1017F000042084F851002046314632463B4600958D
:1018000000F0CEF902B0BDE8F08100BF012084F8FD
:1018100050000420002184F851006165A663A78769
:10182000E7872163A186E186A2682068B2F5004FB0
:101830002164616438D00168490640D5E168E08FD1
:10184000002944D000287BD0681C0CD11BE000BFCD
:10185000C068A16B21F8020BA163E08F0138E0871B
:10186000E08F00286CD020688168C907F0D1FFF7AD
:1018700025FAA0EB0800A842F2D342E0FFF71EFAD7
:10188000E08F00285CD020688168C907F6D0C06866
:10189000A16B21F8020BA163E08F0138E087E08F94
:1018A0000028F0D14CE000BF016821F04001016048
:1018B000016821F48041016001684906BED40168D5
:1018C00041F040010160E168E08F0029BAD1B8B36E
:1018D000681C0CD124E000BF007BA16B0870A06BDA
:1018E0000130A063E08F0138E087E08F40B32068CB
:1018F0008168C907F0D1FFF7E1F9A0EB0800A84221
:10190000F3D3012084F85100002084F85000032014
:1019100002B0BDE8F08100BFFFF7D0F9E08F78B1E9
:1019200020688168C907F7D0007BA16B0870A06BA5
:101930000130A063E08F0138E087E08F0028EFD10D
:101940006068B0F5827F11D1A068B0F5004F02D079
:10195000B0F5806F0AD12168B0F5806F0A6822F077
:1019600040020A6002D12046012101E02046802188
:1019700000222B46CDF8008000F0E0FB28B1606D1E
:1019800040F02000606520206065012084F851004F
:10199000002084F85000606D002818BF012002B0BC
:1019A000BDE8F0812DE9F04182B01D4616460F4694
:1019B0000446FFF783F994F8511001290ED18046AF
:1019C000002F4FF0010018BF002E03D102B0BDE878
:1019D000F08100BF94F85000012803D1022002B02A
:1019E000BDE8F081012084F850000320002184F834
:1019F000510061652763A686E686A163A187E1871A
:101A0000A0682164B0F5004F2068616407D10168C7
:101A100021F040010160016841F4804101600168EA
:101A2000490603D4016841F0400101606168731EFA
:101A3000E268B1FA81F1B3FA83F349095B09B2F5BF
:101A4000006F41EA030139D131B137F8021BC1609F
:101A50002763E08E0138E086E08E002870D0681C95
:101A60000BD11AE0216B31F8022BC2602163E08EAA
:101A70000138E086E08E002862D0206881688907FE
:101A8000F0D4FFF71BF9A0EB0800A842F2D338E02E
:101A9000FFF714F9E08E002852D02068816889078A
:101AA000F6D5216B31F8022BC2602163E08E01383C
:101AB000E086E08E0028F0D142E000BF39B13978ED
:101AC0000173206B01302063E08E0138E086E08EE8
:101AD000B0B3681C0BD123E0216B09780173206B34
:101AE00001302063E08E0138E086E08E40B320684C
:101AF00081688907F0D4FFF7E1F8A0EB0800A8425D
:101B0000F3D3012084F85100002084F85000032012
:101B100002B0BDE8F08100BFFFF7D0F8E08E78B1E9
:101B2000206881688907F7D5216B09780173206BDC
:101B300001302063E08E0138E086E08E0028EFD18E
:101B40002046022101222B46CDF8008000F0F6FA53
:101B500040B92046802100222B46CDF8008000F0BD
:101B6000EDFA28B1606D40F02000606520206065CE
:101B7000A06838B9002001902068C1680191806890
:101B800001900198012084F85100002084F8500051
:101B9000606D002818BF012002B0BDE8F081000090
:101BA0002DE9F04383B01E4615460F460446FFF765
:101BB00085F894F851108146012909D1002F4FF082
:101BC000010018BF002D0FD103B0BDE8F08300BFA6
:101BD0006068B0F5827F0DD104294FF00200F3D187
:101BE000A1680029EAD0EFE7002EEDD094F850006C
:101BF000012803D1022003B0BDE8F083012084F85E
:101C0000500094F85100002104281CBF052084F8DE
:101C100051006165A563E687A6872763E68620688D
:101C2000A686216461640168490603D4016841F015
:101C3000400101606168731EE268B1FA81F1B3FA94
:101C400083F3DDF8288049095B09B2F5006F41EAAA
:101C5000030165D131B137F8021BC1602763E08E03
:101C60000138E086012518F1010032D102E000BF01
:101C7000FFF724F8E08E18B9E08F002800F0B88054
:101C80002068816889070CD5E18E51B1012D08D1FA
:101C9000216B002531F8022BC2602163E18E0139EE
:101CA000E1868168C907E3D0E18F0029E0D0C068F0
:101CB000A16B012521F8020BA163E08F0138E087B9
:101CC000D6E700BFFEF7FAFFA0EB0900404580F021
:101CD000AF80E08E18B9E08F002800F0898020687E
:101CE000816889070CD5E18E51B1012D08D1216B96
:101CF000002531F8022BC2602163E18E0139E186B3
:101D00008168C907DED0E18F0029DBD0C068A16BF4
:101D1000012521F8020BA163E08F0138E087D1E7AC
:101D200039B139780173206B01302063E08E0138BE
:101D3000E086012518F1010032D101E0FEF7BEFF77
:101D4000E08E10B9E08F002852D0206881688907A2
:101D50000ED5E18E61B1012D0AD1216B00250978E4
:101D60000173216B206801312163E18E0139E18625
:101D70008168C907E2D0E18F0029DFD0C068A16B7C
:101D800001250870A06B0130A063E08F0138E08767
:101D9000D4E700BFFEF792FFA0EB0900404547D211
:101DA000E08E08B9E08F18B32068816889070ED5E6
:101DB000E18E61B1012D0AD1216B002509780173F3
:101DC000216B206801312163E18E0139E186816850
:101DD000C907DFD0E18F0029DCD0C068A16B0125E5
:101DE0000870A06B0130A063E08F0138E087D1E775
:101DF0002046022101224346CDF8009000F09EF9D2
:101E000040B92046802100224346CDF8009000F0E2
:101E100095F9B8B1606D40F02000606520206065E4
:101E2000002084F85000012003B0BDE8F08300BF1B
:101E3000012084F85100002084F85000032003B0F2
:101E4000BDE8F083A06838B9002002902068C1681E
:101E50000291806802900298012084F851000020CD
:101E600084F85000606D002818BF012003B0BDE861
:101E7000F0830000411E0020B0EB116F1CBF012059
:101E800070474EF21002CEF2000251604EF623511E
:101E9000CEF20001F0230B700721906011607047B3
:101EA000FEE70000FEE70000FEE70000B0B584B0EA
:101EB00040F60004C4F2010420464FF400710022F1
:101EC000FEF7F6FE002000F0C9FB2020ADF802006E
:101ED00020464FF480710022FEF7EAFE40F2EC0546
:101EE000C2F200050DF10201284602224FF47A7376
:101EF000FFF758FD20464FF480710122FEF7D8FE0F
:101F00002120ADF8040020464FF480710022FEF736
:101F1000CFFE01A9284602224FF47A73FFF742FD53
:101F200020464FF480710122FEF7C2FE2220ADF858
:101F3000060020464FF480710022FEF7B9FE0DF135
:101F40000601284602224FF47A73FFF72BFD204644
:101F50004FF480710122FEF7ABFE40F22330ADF862
:101F6000080020464FF480710022FEF7A1FE02A96E
:101F7000284602224FF47A73FFF714FD20464FF4EF
:101F800080710122FEF794FE2420ADF80A0020465D
:101F90004FF480710022FEF78BFE0DF10A012846F6
:101FA00002224FF47A73FFF7FDFC20464FF4807154
:101FB0000122FEF77DFE2520ADF80C0020464FF4EF
:101FC00080710022FEF774FE03A9284602224FF416
:101FD0007A73FFF7E7FC20464FF480710122FEF789
:101FE00067FE40F62660ADF80E0020464FF4807183
:101FF0000022FEF75DFE0DF10E01284602224FF48D
:102000007A73FFF7CFFC20464FF480710122FEF770
:102010004FFE20464FF400710122FEF749FE04B046
:10202000B0BD0000F0B583B040F60004C4F2010476
:102030000D46064620464FF4007100220027FEF7A9
:1020400037FE25208DF8040020464FF480710022D1
:102050008DF80550FEF72CFE40F2EC05C2F20005AB
:1020600001A9284602224FF47A73FFF79BFC204611
:102070004FF480710122FEF71BFE30208DF8060020
:1020800020464FF480710022FEF712FE0DF106018A
:10209000284601226423FFF785FC284631460522A5
:1020A0004FF47A73FFF77EFC20464FF480710122D3
:1020B000FEF7FEFD20464FF4807100228DF8097076
:1020C0008DF80870FEF7F4FD0DF109012846012294
:1020D0006423FFF767FC02A9284601226423FFF767
:1020E00061FB20464FF480710122FEF7E1FD9DF86F
:1020F0000800202100F0F2008DF80A108DF80B0086
:1021000020464FF480710022FEF7D2FD0DF10A0146
:10211000284602224FF47A73FFF744FC20464FF41E
:1021200080710122FEF7C4FD20464FF400710122A8
:10213000FEF7BEFD03B0F0BD704700002DE9F0438F
:1021400081B0089C984615460E468146FEF7B6FDBE
:10215000201A00EB0804FEF7B1FD40F20801C2F2BC
:1021600000010968C1F3CB3161430091D9F8001037
:102170008A683240921BB2FA82F25209AA423DD0DA
:10218000074618F1010031D0FEF798FDC01BA042B0
:1021900038D2009800990028A1F101010091D9F8E6
:1021A0000010896808BF044601EA0600801BB0FAE7
:1021B00080F04009A842E7D120E000BF88683040A5
:1021C000801BB0FA80F04009A84217D088683040E0
:1021D000801BB0FA80F04009A8420FD088683040D8
:1021E000801BB0FA80F04009A84207D088683040D0
:1021F000801BB0FA80F04009A842DFD1002001B076
:10220000BDE8F083D9E900014268B1F5827F22F090
:10221000E00242600BD1D9F80810B1F5004F02D0AE
:10222000B1F5806F03D1016821F040010160D9F858
:102230002810B1F5005F07D1016821F40051016059
:10224000016841F400510160012089F8510000202B
:1022500089F85000032001B0BDE8F083704700000A
:10226000FEF768BD70470000FEE7000094B0FEF77F
:102270006FFD092000240A904FF480300225CDE93B
:102280000B04CDE911504FF4E010012113900AA87E
:102290000F94CDE90D440494CDE902440E911091C0
:1022A000FEF7EEFF20B1EFF3108072B6FEE700BF3D
:1022B0000F20CDE905054FF48060CDE9080405A89D
:1022C00002210794FEF7EAFE20B1EFF3108072B608
:1022D000FEE700BF4FF400404FF00209039001A851
:1022E000CDF80490FEF758FE20B1EFF3108072B6DF
:1022F000FEE700BF4FF0000841F21800CDE90C885E
:10230000CDE90A88C4F20200016840F6004441F0B9
:10231000100101600168C4F2010401F0100105918F
:102320000599016804F5806741F0200101600168AA
:10233000002201F020010591059901684FF4005633
:1023400041F004010160016801F004010591059963
:10235000016841F00801016000684FF4005100F08D
:102360000800059005983846FEF7A2FCA4F58065A4
:102370002846102100224FF0100BFEF799FC204652
:102380004FF470410022FEF793FC0A960AAE4FF01C
:10239000010A38463146CDE90BA8CDF83490FEF756
:1023A00079FB04200A900020C1F21100CDE90B084E
:1023B00028463146FEF76EFB28463146CDE90ABA7B
:1023C000CDE90C89FEF766FB4FF47040CDE90A0AAF
:1023D00020463146CDE90C89FEF75CFB4FF4407096
:1023E000CDE90A0828463146CDF83080FEF752FB89
:1023F0001820CDE90A0820463146CDF83080FEF796
:1024000049FB082000210022FEF70EFD0820FEF700
:10241000F9FC40F27807C2F2000704F5C0513846D3
:1024200040F8441F4FF4602180F80CA080F814801D
:10243000C161C0E90188C0F810A0FEF739F828B1E1
:10244000EFF3108072B600BFFEE700BF07F144054E
:102450000AA92846CDE90A8ACDF83080FDF768FF41
:1024600020B1EFF3108072B6FEE700BF40F2EC003F
:1024700004F51051C2F200004FF48272002380E88C
:102480000E0000F114014FF400764FF0180C81E8B3
:1024900048100A21C0E90333C0E90833C0E90A3112
:1024A000FFF7EEF820B1EFF3108072B6FEE700BF41
:1024B000A4F55C41384640F8181F032140F6FF722E
:1024C000C0E90112FEF700FC20B1EFF3108072B6F4
:1024D000FEE700BFFFF7EAFC40F20C00C2F200008A
:1024E0000A21FFF79FFD4FF000084FF001094FF060
:1024F000090B40F6B83AC7E90988C7E90B88C7E96C
:102500000D88C7E90F8800BF3E4646F80C8F284665
:102510003146C7E90498FDF70BFF2846FEF7F0F9AE
:1025200028464FF4FA71FEF7B3F82846FDF7BCFFD2
:1025300078802846FEF74CFA28463146C6F80090C7
:10254000FDF7F6FE2846FEF7DBF928464FF4FA7150
:10255000FEF79EF82846FDF7A7FFB8802846FEF74D
:1025600037FA0820306028463146FDF7E1FE28465C
:10257000FEF7C6F928464FF4FA71FEF789F82846A7
:10258000FDF792FFF8802846FEF722FA28463146EA
:10259000C6F800B0FDF7CCFE2846FEF7B1F9284694
:1025A0004FF4FA71FEF774F82846FDF77DFF388185
:1025B0002846FEF70DFA20461021FEF773FB38700F
:1025C00020460821FEF76EFB7988BA8809BA090C03
:1025D000B98411BAFB88090CF9840022190A7870B1
:1025E000534588BF012287F82810398987F8293098
:1025F00009BA090C3B78798587F82D0020464FF4FD
:10260000805187F82C30FEF753FBF8880022B0F594
:102610007A7F20464FF4005138BF0122FEF748FB75
:1026200038890022504520464FF4804188BF01225E
:10263000FEF73EFB38890022B0F57A7F20464FF442
:10264000004138BF0122FEF733FB6420FEF700FA99
:1026500007F11800FEF768FB56E70000F0B587B0F9
:1026600040F600041728C4F2010403D0072811D152
:10267000272001E041F23710ADF8140020464FF456
:1026800080710022FEF714FB40F2EC00C2F2000061
:1026900005A96DE24FF40260ADF8140020464FF436
:1026A00080710022FEF704FB40F2EC05C2F2000547
:1026B00005A9284602224FF47A73FFF773F92046E2
:1026C0004FF480710122FEF7F3FA43F62170ADF862
:1026D000140020464FF480710022FEF7E9FA05A9A4
:1026E000284602224FF47A73FFF75CF920464FF434
:1026F00080710122FEF7DCFA40F22230ADF81400BE
:1027000020464FF480710022FEF7D2FA05A9284630
:1027100002224FF47A73FFF745F920464FF4807197
:102720000122FEF7C5FA40F22330ADF8140020462E
:102730004FF480710022FEF7BBFA05A92846022259
:102740004FF47A73FFF72EF920464FF4807101227F
:10275000FEF7AEFA4FF44970ADF8140020464FF47E
:1027600080710022FEF7A4FA05A9284602224FF440
:102770007A73FFF717F920464FF480710122FEF7B4
:1027800097FA40F22520ADF8140020464FF48071EE
:102790000022FEF78DFA05A9284602224FF47A732B
:1027A000FFF700F920464FF480710122FEF780FA0E
:1027B00040F62660ADF8140020464FF480710022E8
:1027C000FEF776FA05A9284602224FF47A73FFF73E
:1027D000E9F820464FF480710122FEF769FA2720BC
:1027E000ADF8140020464FF480710022FEF760FA25
:1027F00005A9284602224FF47A73FFF7D3F8204642
:102800004FF480710122FEF753FA2820ADF814002E
:1028100020464FF480710022FEF74AFA05A92846A7
:1028200002224FF47A73FFF7BDF820464FF480710F
:102830000122FEF73DFA2920ADF8140020464FF49E
:1028400080710022FEF734FA05A9284602224FF4CF
:102850007A73FFF7A7F820464FF480710122FEF744
:1028600027FA2A206FF018064FF0E7378DF80C0092
:1028700020464FF4807100228DF818600597FEF70E
:1028800017FA03A9284601226423FFF78BF805A94C
:10289000284605224FF47A73FFF784F820464FF458
:1028A00080710122FEF704FA6FF03D008DF81000F0
:1028B0004FF0C23003902B208DF8040020464FF4D7
:1028C00080710022FEF7F4F901A928460122642351
:1028D000FFF768F803A9284605224FF47A73FFF73B
:1028E00061F820464FF480710122FEF7E1F94CF2C5
:1028F0002C30ADF8040020464FF480710022FEF722
:10290000D7F901A9284602224FF47A73FFF74AF853
:1029100020464FF480710122FEF7CAF94CF22D4097
:10292000ADF8040020464FF480710022FEF7C0F994
:1029300001A9284602224FF47A73FFF733F82046A4
:102940004FF480710122FEF7B3F94CF22E50ADF82E
:10295000040020464FF480710022FEF7A9F901A976
:10296000284602224FF47A73FFF71CF820464FF4F2
:1029700080710122FEF79CF94CF22F60ADF8040043
:1029800020464FF480710022FEF792F901A92846F3
:1029900002224FF47A73FFF705F820464FF4807156
:1029A0000122FEF785F930208DF81A0020464FF4F9
:1029B000807100228DF808600197FEF779F90DF11A
:1029C0001A01284601226423FEF7ECFF01A92846DC
:1029D00005224FF47A73FEF7E5FF20464FF480712D
:1029E0000122FEF765F93120ADF81A0020464FF4B8
:1029F00080710022FEF75CF90DF11A0128460222CF
:102A00004FF47A73FEF7CEFF20464FF48071012217
:102A1000FEF74EF93220ADF81A0020464FF48071CF
:102A20000022FEF745F90DF11A01284602224FF463
:102A30007A73FEF7B7FF20464FF480710122FEF74C
:102A400037F93320ADF81A0020464FF48071002288
:102A5000FEF72EF90DF11A01284602224FF47A737F
:102A6000FEF7A0FF20464FF480710122FEF720F907
:102A70003420ADF81A0020464FF480710022FEF792
:102A800017F90DF11A01284602224FF47A73FEF766
:102A900089FF20464FF480710122FEF709F93520A5
:102AA000ADF81A0020464FF480710022FEF700F9BD
:102AB0000DF11A01284602224FF47A73FEF772FFD5
:102AC00020464FF480710122FEF7F2F83620ADF86F
:102AD0001A0020464FF480710022FEF7E9F80DF14C
:102AE0001A01284602224FF47A73FEF75BFF204654
:102AF0004FF480710122FEF7DBF841F23710ADF898
:102B00001A0020464FF480710022FEF7D1F80DF133
:102B10001A01284602224FF47A73FEF743FF20463B
:102B20004FF480710122FEF7C3F83C20ADF81A0083
:102B300020464FF480710022FEF7BAF80DF11A0119
:102B4000284602224FF47A73FEF72CFF20464FF4FA
:102B500080710122FEF7ACF83D20ADF81A00204646
:102B60004FF480710022FEF7A3F80DF11A012846F8
:102B700002224FF47A73FEF715FF20464FF480715E
:102B80000122FEF795F807B0F0BD0000000000003C
:102B9000000001020304060708090000000001020A
:102BA0000304010202030405060708090A0B0C0DC1
:102BB0000E0F1010D82B0008000000201800000095
:102BC00050010008F02B000818000020300700001A
:102BD000700100080000000001000000100000006B
:102BE00000127A00EEDDCCBBAA000000000000005D
:04000005080000ED02
:00000001FF
